:020000040000FA
:100000000C94A2000C94CA000C94CA000C94CA0070
:100010000C94CA000C94CA000C94CA000C94CA0038
:100020000C94CA000C94CA000C94CA000C94CA0028
:100030000C94CA000C94CA000C94CA000C94CA0018
:100040000C943E170C94CA000C940C170C94E616F2
:100050000C94CA000C94CA000C94CA000C94CA00F8
:100060000C9488170C94CA0030003A0030003A0013
:1000700030005365742054696D653A0030002F00DC
:1000800030002F0053657420446174653A0000000D
:100090000000240027002A0000000000250028009E
:1000A0002B000000000023002600290004040404A3
:1000B0000404040402020202020203030303030312
:1000C000020203010204081020408001020408100B
:1000D00020010204081020408040000000090003B5
:1000E00002000004050800000000000000000000FD
:1000F0000030393337203933382036373532005025
:100100007261792054696D65720030393337203956
:100110003338203637353200506C6179696E6700AC
:1001200030003A0030003A00300054696D653A20E2
:10013000200030002F0030002F00446174653A2009
:100140000000B31811241FBECFEFD4E0DEBFCDBF37
:1001500011E0A0E0B1E0EAE6FBE302C005900D92F9
:10016000A83AB107D9F723E0A8EAB1E001C01D928F
:10017000AD3CB207E1F710E0C2EAD0E004C021973D
:10018000FE010E949E1DC13AD107C9F70E94C51900
:100190000C94B31D0C94000090917D0280917C0220
:1001A0002FEF3FEF981748F4E92FF0E0E45AFD4FA6
:1001B000208130E09F5F90937D02C9010895909166
:1001C0007D0280917C022FEF3FEF981748F4E92FD2
:1001D000F0E0E45AFD4F208130E09F5F90937D0274
:1001E000C90108959091520281E0913208F043C014
:1001F00080915B028111FCCF8091510222E020931B
:100200005B0221E020935A022FEF2093590221E351
:1002100032E0309358022093570210925602909386
:1002200055021092540290915402880F892B8093AA
:10023000540280915302813029F51092530280912B
:1002400054028093BB008091BC0083FDF8CF85EC05
:100250008093BC0080915B028230E1F3809159026F
:100260008F3F91F080915902803281F08091590244
:10027000803371F084E0109230021092520210929A
:100280002F02089585EEE4CF80E0F5CF82E0F3CF32
:1002900083E0F1CF96E0899FD0011124A95DBC4F86
:1002A00090967C936E935F9791E091969C93919733
:1002B000E0919403F091950390919303992339F081
:1002C000309751F0811108C0809143030994309711
:1002D00019F05C968C91FACF089580917C029091F0
:1002E0007D02891B990B089508950895AF92BF92DE
:1002F000CF92DF92EF92FF920F931F93CF93DF93F2
:100300006C017B018B01040F151FEB015E01AE1820
:10031000BF08C017D10759F06991D601ED91FC9142
:100320000190F081E02DC6010995892B79F7C5016F
:10033000DF91CF911F910F91FF90EF90DF90CF90C1
:10034000BF90AF900895FC01538D448D252F30E070
:10035000842F90E0821B930B541710F0CF960895D2
:1003600001970895FC01918D828D981761F0A28DFF
:10037000AE0FBF2FB11D5D968C91928D9F5F9F73C5
:10038000928F90E008958FEF9FEF0895FC01918D7B
:10039000828D981731F0828DE80FF11D858D90E0E8
:1003A00008958FEF9FEF0895FC01918D228D892F85
:1003B00090E0805C9F4F821B91098F73992708956D
:1003C0008EE792E00E94D40121E0892B09F420E01D
:1003D000822F089580E090E0892B29F00E94E001AF
:1003E00081110C9400000895FC01A48DA80FB92F71
:1003F000B11DA35ABF4F2C91848D90E001968F734D
:100400009927848FA689B7892C93A089B1898C916B
:10041000837080648C93938D848D981306C00288BA
:10042000F389E02D80818F7D80830895EF92FF9284
:100430000F931F93CF93DF93EC0181E0888F9B8D07
:100440008C8D98131AC0E889F989808185FF15C0C1
:100450009FB7F894EE89FF896083E889F9898081E4
:100460008370806480839FBF81E090E0DF91CF91B3
:100470001F910F91FF90EF900895F62E0B8D10E0D5
:100480000F5F1F4F0F731127E02E8C8D8E110CC044
:100490000FB607FCFACFE889F989808185FFF5CF8F
:1004A000CE010E94F401F1CFEB8DEC0FFD2FF11D79
:1004B000E35AFF4FF0829FB7F8940B8FEA89FB89CC
:1004C00080818062CFCFCF93DF93EC01888D88232A
:1004D000B9F0AA89BB89E889F9898C9185FD03C0A7
:1004E000808186FD0DC00FB607FCF7CF8C9185FF8C
:1004F000F2CF808185FFEDCFCE010E94F401E9CFDC
:10050000DF91CF910895843081F028F48230E9F0B2
:100510008330F9F00895883071F0893091F085309A
:10052000B9F4809180008F7D03C0809180008F7727
:100530008093800008958091B0008F778093B00001
:1005400008958091B0008F7DF9CF84B58F7784BDF9
:10055000089584B58F7DFBCFCF93DF93282F30E0B4
:10056000F901E652FF4F8491F901ED53FF4FD49109
:10057000F901E455FF4FC491CC23A1F081110E94F1
:100580008302EC2FF0E0EE0FFF1FEE55FF4FA59119
:10059000B491EC91ED2381E090E009F480E0DF91EB
:1005A000CF91089580E090E0FACF862F0C94AC02B2
:1005B0001F93CF93DF93282F30E0F901E652FF4FCE
:1005C0008491F901ED53FF4FD491F901E455FF4FA8
:1005D000C491CC23A9F0162F81110E948302EC2F25
:1005E000F0E0EE0FFF1FE856FF4FA591B4918FB7D3
:1005F000F894EC91111108C0D095DE23DC938FBFE5
:10060000DF91CF911F910895DE2BF8CF862F642FB5
:100610000C94D80210927D0210927C02109230024B
:100620001092520210925B0281E080935A02109263
:10063000530261E082E10E94D80261E083E10E94FE
:10064000D802E9EBF0E080818E7F808380818D7F0E
:10065000808388E48093B80085E48093BC0084E7BD
:1006600091E090932E0280932D0285E791E0909384
:100670002C0280932B020895CF93DF9390E0FC012E
:10068000ED53FF4F249184559F4FFC0184918823A3
:10069000C9F090E0880F991FFC01E257FF4FA59128
:1006A000B491FC01E856FF4FC591D49161110DC082
:1006B0009FB7F8948C91209582238C93888128236E
:1006C00028839FBFDF91CF910895623051F49FB787
:1006D000F8943C91822F809583238C93E8812E2B74
:1006E000EFCF8FB7F894EC912E2B2C938FBFEACFDE
:1006F000862F642F0C943C038130910539F0880FCC
:10070000991F880F991F05970197F1F708953FB733
:10071000F8948091030290910402A0910502B09197
:10072000060226B5A89B05C02F3F19F00196A11D12
:10073000B11D3FBFBA2FA92F982F8827BC01CD012B
:10074000620F711D811D911D42E0660F771F881F8A
:10075000991F4A95D1F708958F929F92AF92BF92B9
:10076000CF92DF92EF92FF924B015C010E948703D0
:100770006B017C010E9487036C197D098E099F091A
:10078000683E734081059105A8F321E0821A910823
:10079000A108B10888EEC80E83E0D81EE11CF11C48
:1007A00081149104A104B10429F7FF90EF90DF9028
:1007B000CF90BF90AF909F908F9008952FB7F894EF
:1007C0006091FF01709100028091010290910202FC
:1007D0002FBF08950F931F93CF93DF93C82FD62F6A
:1007E00086E0C89FF0011124E95DFC4F11A2878DBE
:1007F00090A181309105F1F058F082309105F1F12E
:10080000039709F440C0DF91CF911F910F91089594
:100810006623C9F361E070E08C2F0E944A010E94B8
:10082000DE0360937F037093800380938103909332
:100830008203E9CF0E94DE0300917F0310918003C1
:100840002091810330918203AB01BC01401B510B0D
:10085000620B730B8091910390919203B0E0A0E042
:1008600084179507A607B70748F462E070E08C2F5D
:10087000DF91CF911F910F910C944A0163E070E0DA
:10088000D111C1CFF4CF70E060E0F1CF6F927F92D1
:100890008F929F92AF92BF92CF92DF92EF92FF9290
:1008A0000F931F93CF93DF9381E0809393030E9474
:1008B000DE0300918303109184032091850330911E
:1008C0008603AB01BC01401B510B620B730B809183
:1008D0008F0390919003B0E0A0E084179507A607DE
:1008E000B70708F014C1C0E080918D03C81760F409
:1008F000E0918903F0918A03EC0FF11D62E08081A1
:100900000E943C03CF5FF0CF712C812C912C5401BD
:10091000839480918E03781608F05FC0072D10E055
:10092000E0918B03F0918C03E00FF11F61E0808177
:100930000E943C03E0918B03F0918C03E00FF11FC8
:1009400060E080810E94D802D501C401072C04C058
:10095000880F991FAA1FBB1F0A94D2F76C017C0154
:10096000E094F094612C80918D036816F8F4C62D04
:10097000D0E0E0918903F0918A03EC0FFD1F8081A4
:100980000E94AC022496CC0FDD1FC95DDC4F892B81
:1009900041F4888199818C299D2999838883639466
:1009A000E2CF888199818E219F21F7CFE0918B033F
:1009B000F0918C03E00FF11F61E080810E94D8026A
:1009C00080918B0390918C03080F191F60E0F80150
:1009D00080810E943C0373949CCFC7E2D3E0FE0168
:1009E0008FEF9FEF278D30A1232B21F4148E968F4C
:1009F000858F11A2369623E0E336F20799F7F12CA2
:100A000096E0D92E80918D03F81608F050C0E12CA5
:100A10000F2D10E0000F111F015D1C4F20918E0360
:100A2000E21608F042C0F801608171810E2C02C00C
:100A3000769567950A94E2F7F29E900111242E0DA7
:100A4000311DE7E2F3E080E0458D568D2417350730
:100A500009F461C08F5F36968A30B1F760FF23C01A
:100A6000E7E2F3E090E080E0448D411117C0E091AF
:100A70008703F0918803E20FF31F4081D89EF001B5
:100A8000D99EF00D1124E95DFC4F448F368F258FE0
:100A900010A2178E61E00E94EA0305C00196369607
:100AA0008A30910509F7E394B9CFF394ABCF10E006
:100AB00089A18111182F2696F3E0C336DF07C1F70D
:100AC0000E94DE0360938303709384038093850305
:100AD000909386031123D9F0809148038823B9F0BD
:100AE0008091460390914703019789F480914303D5
:100AF000DF91CF911F910F91FF90EF90DF90CF90FA
:100B0000BF90AF909F908F907F906F9008951092BC
:100B1000930380E0EDCF6170BECFCF93DF93EC0104
:100B200060E08E810E94D80281E090E00E947C0308
:100B300061E08E810E94D80281E090E00E947C03F7
:100B400060E08E810E94D80284E690E0DF91CF9130
:100B50000C947C03CF92DF92EF92FF920F931F933E
:100B6000CF93DF936C017C0187E0E80EF11CD0E0AD
:100B7000C0E0062F10E0B8010C2E02C075956795F5
:100B80000A94E2F76170F70181917F010E94D80217
:100B90002196C430D10579F7C601DF91CF911F911D
:100BA0000F91FF90EF90DF90CF900C948D05CF9236
:100BB000DF92EF92FF920F931F93CF93DF93EC019D
:100BC000F62E642F8C810E94D8028D818F3F19F000
:100BD00060E00E94D8020F2D10E08F8584FF25C0B1
:100BE0006E0187E0C80ED11CF12CE12CB8010E2C4F
:100BF00002C0759567950A94E2F76170F6018191DC
:100C00006F010E94D802FFEFEF1AFF0A88E0E81692
:100C1000F10461F7CE01DF91CF911F910F91FF9009
:100C2000EF90DF90CF900C948D05B80184E075951E
:100C300067958A95E1F7CE010E94AA056F2DCE0136
:100C4000DF91CF911F910F91FF90EF90DF90CF90A8
:100C50000C94AA0540E0682F86E993E00C94D70530
:100C600081E00E942A0680ED97E00C947C03CF93EC
:100C7000DF93823029F49091A50398609093A503A7
:100C80008093A9031092AA0380E48093AB0380E1D0
:100C90008093AC0380E58093AD0361E080919A037B
:100CA0000E943C0380919B038F3F19F061E00E94FA
:100CB0003C0361E080919C030E943C03C6E9D3E0C1
:100CC0009E01265933408091A50384FD0BC084E02A
:100CD00090E021962817390744F461E08E810E9444
:100CE0003C03EECF88E090E0F4CF80E593EC0E94E7
:100CF0007C0360E080919A030E94D80260E08091BA
:100D00009C030E94D80280919B038F3F19F060E002
:100D10000E94D8028091A50384FD35C063E086E976
:100D200093E00E94AA0584E991E10E947C0363E0BC
:100D300086E993E00E94AA0584E991E10E947C0380
:100D400063E086E993E00E94AA0586E990E00E94AC
:100D50007C0362E086E993E00E94AA058091A503E6
:100D600080620E942A0684E08093A6038CE00E94A1
:100D70002A060E94300682E08093A70386E0DF9176
:100D8000CF910C942A0680620E942A0684E991E1A0
:100D90000E947C038091A50380620E942A0686E956
:100DA00090E00E947C038091A50380620E942A0645
:100DB000D5CF9091A903691710F06FEF690FE62F57
:100DC000F0E0EA56FC4F9489890F80680C942A065B
:100DD000E6E9F3E080898E7F808B88600C942A0698
:100DE00041E00E94D70581E090E008950F931F93A2
:100DF000CF93DF938C01D0E0C0E0F801EC0FFD1F32
:100E00006491662339F041E086E993E00E94D705BA
:100E10002196F3CFCE01DF91CF911F910F910895CD
:100E20000895CF92DF92EF92FF920F931F93CF938B
:100E3000DF93CDB7DEB7A4970FB6F894DEBF0FBE31
:100E4000CDBF8C0182E1EAE4F1E0DE011196019070
:100E50000D928A95E1F782E1ECE5F1E0DE0153962F
:100E600001900D928A95E1F7FE01319690E080E0C5
:100E70002191319102171307DCF5880F991FE1E0EA
:100E8000F0E0EC0FFD1FE80FF91FC288D3880D2C8E
:100E9000000CEE08FF082FE231E0D8010E948B1D04
:100EA0006C0D7D1D8E1D9F1D22EE34E040E050E054
:100EB0000E946C1D69017A012DE631E0D8010E9483
:100EC0008B1D6E5C7644824E9F4F6C0D7D1D8E1D7A
:100ED0009F1DA4960FB6F894DEBF0FBECDBFDF9165
:100EE000CF911F910F91FF90EF90DF90CF900895D9
:100EF00001968930910509F0BBCFEBCF85ED80934A
:100F0000BC008091BC0084FDFCCF10925B02089570
:100F10002091DB01260F3327331F21323105ECF4FA
:100F200020915B02FC0190E080E0243069F082E0D7
:100F30000895A091DB012191AC0145545E4FA40FAF
:100F4000B52FB11D2C930196861798F38091DB0184
:100F5000680F6093DB0180E0089581E008950895B3
:100F6000E0917D0280917C02E81730F4F0E0E45AD1
:100F7000FD4F808190E008958FEF9FEF0895CF920D
:100F8000DF92EF92FF920F931F93CF93DF937C0139
:100F9000CB018A0120912F02222389F0EB016B0102
:100FA000C40ED51ECC15DD0569F06991D701ED9110
:100FB000FC910190F081E02DC7010995F3CF642FDA
:100FC0000E948807C801DF91CF911F910F91FF9078
:100FD000EF90DF90CF900895CF93DF931F92CDB71E
:100FE000DEB7698320912F022223F9F0209152026B
:100FF000203258F021E030E0FC013383228390E07E
:1010000080E00F90DF91CF91089580913002E82F1A
:10101000F0E0EF5CFD4F998190838F5F8093300209
:101020008093520281E090E0ECCF61E0CE01019626
:101030000E948807F7CF682F8BE193E00C94EC07B0
:1010400090E080E00895EF92FF920F931F93CF936B
:10105000DF93CDB7DEB72A970FB6F894DEBF0FBE89
:10106000CDBF1E821D829EE799839FEF9A8396E0F3
:101070009B839FEE9A878C836E834F839EEF988726
:1010800090E08B5F9E4F860F911D480F592F511D89
:1010900051954195510949878E010F5F1F4F7E0180
:1010A0008BE0E80EF11CF80161918F018EE792E070
:1010B0000E941602E016F106B1F72A960FB6F894D0
:1010C000DEBF0FBECDBFDF91CF911F910F91FF907B
:1010D000EF90089590915B029111FCCF613208F07E
:1010E00060E291E090935B0290935A022FEF20937D
:1010F00059022CE532E030935802209357021092A7
:1011000056022FEF260F2093550290935402909190
:101110005402880F892B80935402809153028130AE
:10112000E9F410925302809154028093BB008091A5
:10113000BC0083FDF8CF85EC8093BC0080915B02FE
:101140008130E1F380915602861710F460915602C7
:1011500010927D0260937C02862F089585EEECCF7D
:10116000CF93DF938091AE0391E090932F02809311
:101170005102109230021092520290E080E00E94E0
:101180001B080E94F2002091B9038091AE03909158
:10119000AF0368E070E0213011F063E170E00E947D
:1011A0006A080E94DF00982F92959770CAE08F70AE
:1011B0009C9F800D11248093B0030E94DF00982F24
:1011C000929597708F709C9F800D11248093B1032E
:1011D0000E94DF00982F929593708F709C9F800DD6
:1011E00011248093B2030E94DF00982F92959F7084
:1011F0008F709C9F800D11248093B6030E94DF00A6
:10120000982F92959F708F709C9F800D11248093D2
:10121000B3030E94DF0084FB992790F98F709C9F95
:10122000800D11248093B4030E94DF00982F9295C3
:101230009F708F709C9F800D11248093B5038FEF5A
:101240009FE79093B8038093B7038091B9038130EF
:10125000B9F40E94DF0084FF0AC087FD06C08FEF4B
:101260008093C603DF91CF9108958EEFF9CF8370FD
:101270009927019711F480E1F3CF1092C603F2CFC2
:101280001092BA0380E88093C0030E94DF00282FE9
:10129000221F2227221F9091BA03922B9093BA0308
:1012A000982F929597708F709C9F800D112480933A
:1012B000BB030E94DF009C01B6E035952795BA95E7
:1012C000E1F722709091BA03292B2093BA03982F4B
:1012D000929597708F709C9F800D11248093BC0312
:1012E0000E94DF009C01D5E035952795DA95E1F75E
:1012F00024709091BA03292B2093BA03982F9295CA
:1013000093708F709C9F800D11248093BD030E9469
:10131000DF009C0144E0359527954A95E1F7287058
:101320003091BA03232B322F3F7009F4C3C02093AE
:10133000BA03982F92959370CAE08F709C9F800D8E
:1013400011248093BE030E94DF009C0176E0359556
:1013500027957A95E1F722709091C003292B20936D
:10136000C003982F929597708F709C9F800D1124C9
:101370008093C1030E94DF009C01E5E0359527952D
:10138000EA95E1F724709091C003292B2093C003C4
:10139000982F929593708F709C9F800D112480934D
:1013A000C2030E94DF009C01F4E035952795FA9571
:1013B000E1F728703091C003232B322F3E7009F4DF
:1013C00081C02093C003982F9E718F70890F8093E6
:1013D000C3030E94DF0082FF80C09EEF9093C6038C
:1013E00080FF78C09091BA0390629093BA0381FF16
:1013F00079C08091C00380628093C0030E94DF00A7
:10140000FC01B82F282F2B70C1E030E040E050E005
:1014100060E070E080E090E0A0E00E94921D09F49E
:10142000C0E0C093C703BB7081E009F480E0809303
:10143000C80321E0CF018B709927892B09F420E0A4
:101440002093C403EB71FF2781E0EF2B09F480E0C8
:101450008093BF030E94DF0087FD46C08093C503D1
:101460000E94DF00EC010E94DF009E01220F331F6B
:10147000220F331F2C7F337056E0959587955A9530
:10148000E1F783709927822B932BC7FD2FC0909390
:10149000B8038093B7032091B7033091B80349E1B3
:1014A000429FC001439F900D11249093B8038093F5
:1014B000B703D8CEAC0155954795559547954071E2
:1014C000242B35CFAC0155954795559547954071DF
:1014D000242B77CF1092BA038ACF88718093C603EA
:1014E0001092BA0380E888CF8150B8CF9C6F0197E3
:1014F000CECFCF938091CC0381110BC081E080933C
:10150000CC030E94790A6AE070E080E090E00E94DB
:10151000AC038091CA0391E090932F028093510213
:10152000109230021092520290E080E00E941B085C
:1015300090E080E00E941B0866E070E080E090E0B0
:101540000E94AC030E94F200882321F0CFEF8C2F81
:10155000CF91089561E070E08091CA039091CB0330
:101560000E946A0866E070E080E090E00E94AC03B0
:1015700090917C0280917D02981741F30E94DF00D8
:10158000C82F61E070E080E090E00E94AC03DFCF04
:10159000DF92EF92FF920F931F93CF93DF938C0113
:1015A000D62EE72ED42F8091CC0381110BC081E081
:1015B0008093CC030E94790A6AE070E080E090E0BA
:1015C0000E94AC038091CA0391E090932F02809314
:1015D00051021092300210925202812F90E00E942C
:1015E0001B08C80199270E941B0866E070E080E094
:1015F00090E00E94AC030E94F200C82F81112BC022
:101600006D2F70E08091CA039091CB030E946A080D
:1016100066E070E080E090E00E94AC03F0907C0215
:1016200080917D02F816B9F00D2D1E2D80917D025E
:10163000F81679F00E94DF00F80181938F0161E0D4
:1016400070E080E090E00E94AC03CF5FDC130CC040
:10165000CD2F81E0DC1380E0DF91CF911F910F91BE
:10166000FF90EF90DF900895EE24EA9480917D0240
:10167000F812DCCF61E070E080E090E00E94AC0303
:10168000EA94E110F3CFD2CF0C94C80A41E050E0C5
:101690000C94440B4F925F926F927F928F929F9225
:1016A000AF92BF92CF92DF92EF92FF92CF93DF93F0
:1016B000EC012C01092E000C660877082DE631E0BC
:1016C000DC010E948B1D4B015C01C301B20124E0CF
:1016D00030E040E050E00E946C1D820E931EA41E7C
:1016E000B51EC301B2012CE93FEF4FEF5FEF0E943F
:1016F0006C1D69017A01C301B20120E931E040E0CB
:1017000050E00E946C1DC20ED31EE41EF51EC80CD4
:10171000D91CEA1CFB1CCE018F56924083319940A4
:10172000F0F4CE0183709927892B71F5CE0164E620
:1017300070E00E94361D892B39F4CE0160E971E01A
:101740000E94361D892B01F58DE190E090930401F4
:101750008093030181E0C81AD108E108F108C701AC
:10176000B6016B517D4B854E9F4FDF91CF91FF901E
:10177000EF90DF90CF90BF90AF909F908F907F9031
:101780006F905F904F9008958CE190E090930401EA
:1017900080930301E4CF2F923F924F925F926F921A
:1017A0007F928F929F92AF92BF92CF92DF92EF92F1
:1017B000FF920F931F93CF93DF934B015C01EA01DC
:1017C00019016801E114F10409F043C06253794B37
:1017D0008D4191092DE631E040E050E00E946C1D02
:1017E0003983288308811981C801E114F104B1F516
:1017F0000E9411072B013C012FEF421A520A620A84
:10180000720AC80101960E941107AB01BC014F5F2B
:101810005F4F6F4F7F4FCA018055914084199509E2
:101820009093300180932F0184149504A604B7048B
:101830006CF5888199810197998388838416950630
:10184000A606B7067CF288819981019699838883E0
:10185000C9CF645E72448A419109BCCF0E944A0B91
:101860002B013C01E1E0F1E0BC01A20181919191E9
:10187000092E000CAA0BBB0B480F591F6A1F7B1FB8
:1018800089E191E08E179F0789F7CECF84169506E0
:10189000A606B706C4F6E9E1F1E0C1E0D1E030E028
:1018A00020E0A40144195509E114F10431F58081C7
:1018B00091812F5F3F4F4817590714F5F601518367
:1018C0004083F10131832083F6018081918101966B
:1018D00091838083DF91CF911F910F91FF90EF90C3
:1018E000DF90CF90BF90AF909F908F907F906F9040
:1018F0005F904F903F902F90089588819981D9CF24
:10190000092E000CAA0BBB0B480E591E6A1E7B1E2B
:10191000329622962C30310521F6F6015183408310
:10192000D9CF8F929F92AF92BF920F931F93CF9375
:10193000DF93CDB7DEB7A1970FB6F894DEBF0FBE29
:10194000CDBF19A2423008F44AE08E010F5D1F4F4F
:10195000842E912CB12CA12CA50194010E944A1D2A
:10196000E62FB901CA01EA3044F5E05DD801EE93F3
:101970008D01232B242B252B79F790E080E0109705
:1019800069F0FD0101900020E9F73197AF014A1B92
:101990005B0BBD0186E993E00E947601A1960FB62C
:1019A000F894DEBF0FBECDBFDF91CF911F910F9195
:1019B000BF90AF909F908F900895E95CD7CF682F2C
:1019C00070E090E080E04AE00C94910CCF92DF92BE
:1019D000EF92FF926C01990FEE08FF08F7FE16C018
:1019E00041E06DE286E993E00E94D70566277727FC
:1019F000CB016C197D098E099F094AE00E94910C68
:101A00000196FF90EF90DF90CF9008954AE0C701D4
:101A1000B601FF90EF90DF90CF900C94910C4F9215
:101A20005F926F927F929F92AF92BF92CF92DF921E
:101A3000EF92FF920F931F93CF93DF930E94300694
:101A400084E890E00E94F60661E080E00E94D906FA
:101A50008091090290910A020E94E60C82E890E0CF
:101A60000E94F60680912102909122020A9724F4A6
:101A700080E890E00E94F606809121029091220277
:101A80000E94E60C8EE790E00E94F6068091230209
:101A9000909124020A9724F48CE790E00E94F606C5
:101AA00080912302909124020E94E60C8091A6036B
:101AB000982F91609093A60389600E942A0681E086
:101AC00080930001E0910902F0910A02CF0168EED3
:101AD00073E00E94361D6093BA0124E630E0B9013C
:101AE0000E94361D6093B901CF01B9010E94361DD5
:101AF0002AE030E0B9010E94361D6093B801CF01A1
:101B0000B9010E94361D8093B70180912102909106
:101B10002202B9010E94361D6093B6018093B5017F
:101B20008091230290912402B9010E94361D609396
:101B3000B4018093B30180911C02622F0E94161D94
:101B40008093B2019093B10180911A020E94161DF8
:101B50008093B0019093AF01809118020E94161DEE
:101B60008093AE014DE0B42E05E054E0F52E63E025
:101B7000E62E12E07CE0A72EE9E0DE2EF8E0CF2E84
:101B8000ABE09A2EBAE07B2ECEE06C2E0E9446048B
:101B9000C82FD0912A02D111B0C061E080E00E942C
:101BA000D906C03361F41092BA0190E080E00E943F
:101BB000E60C80912A028F5F80932A02E7CFC1331F
:101BC00069F481E08093BA0181E090E00E94E60C24
:101BD00080912A028F5F80932A02D8CFC23361F4AA
:101BE0001093BA0182E090E00E94E60C80912A02F4
:101BF0008F5F80932A02CACFC33361F4E092BA01A7
:101C000083E090E00E94E60C80912A028F5F80932F
:101C10002A02BCCFC43361F4F092BA0184E090E0B0
:101C20000E94E60C80912A028F5F80932A02AECF39
:101C3000C53361F40093BA0185E090E00E94E60CA0
:101C400080912A028F5F80932A02A0CFC63369F465
:101C500086E08093BA0186E090E00E94E60C8091D5
:101C60002A028F5F80932A0291CFC73369F487E0FD
:101C70008093BA0187E090E00E94E60C80912A02EE
:101C80008F5F80932A0282CFC83361F4C092BA0179
:101C900088E090E00E94E60C80912A028F5F80939A
:101CA0002A0274CFC93361F4D092BA0189E090E07E
:101CB0000E94E60C80912A028F5F80932A0266CFF1
:101CC000C13421F481E080932A0260CFC23409F04C
:101CD00052C18FEF80932A02DF91CF911F910F9114
:101CE000FF90EF90DF90CF90BF90AF909F907F904C
:101CF0006F905F904F900C94E806D13009F09DC032
:101D000061E081E00E94D906C03361F41092B9010C
:101D100090E080E00E94E60C80912A028F5F809321
:101D20002A0234CFC13361F4D093B90181E090E04D
:101D30000E94E60C80912A028F5F80932A0226CFB0
:101D4000C23361F41093B90182E090E00E94E60C86
:101D500080912A028F5F80932A0218CFC33361F4E7
:101D6000E092B90183E090E00E94E60C80912A02A3
:101D70008F5F80932A020ACFC43361F4F092B901D5
:101D800084E090E00E94E60C80912A028F5F8093AD
:101D90002A02FCCEC53361F40093B90185E090E0DE
:101DA0000E94E60C80912A028F5F80932A02EECE79
:101DB000C63369F486E08093B90186E090E00E9422
:101DC000E60C80912A028F5F80932A02DFCEC73310
:101DD00069F487E08093B90187E090E00E94E60C07
:101DE00080912A028F5F80932A02D0CEC83361F49B
:101DF000C092B90188E090E00E94E60C80912A022E
:101E00008F5F80932A02C2CEC93361F4D092B901A8
:101E100089E090E00E94E60C80912A028F5F809317
:101E20002A02B4CEC13419F410932A02AFCEC234C0
:101E300009F0A1C010922A02A9CED23009F0A4C0A4
:101E400061E082E00E94D906C03361F41092B801CB
:101E500090E080E00E94E60C80912A028F5F8093E0
:101E60002A0294CEC13369F481E08093B80181E005
:101E700090E00E94E60C80912A028F5F80932A02F4
:101E800085CEC23361F4D093B80182E090E00E9425
:101E9000E60C80912A028F5F80932A0277CEC333AB
:101EA00061F4E092B80183E090E00E94E60C80913A
:101EB0002A028F5F80932A0269CEC43361F4F092C4
:101EC000B80184E090E00E94E60C80912A028F5FC6
:101ED00080932A025BCEC53361F40093B80185E09C
:101EE00090E00E94E60C80912A028F5F80932A0284
:101EF0004DCEC63369F486E08093B80186E090E069
:101F00000E94E60C80912A028F5F80932A023ECEC7
:101F1000C73369F487E08093B80187E090E00E94BE
:101F2000E60C80912A028F5F80932A022FCEC8335D
:101F300061F4C092B80188E090E00E94E60C8091C4
:101F40002A028F5F80932A0221CEC93361F4D09296
:101F5000B80189E090E00E94E60C80912A028F5F30
:101F600080932A0213CEC13419F4E0922A020ECED5
:101F7000C23409F4A7CEC33409F4AECEC43409F098
:101F800005CE60922A0202CED33009F09CC061E0F7
:101F900083E00E94D906C03361F41092B70190E04B
:101FA00080E00E94E60C80912A028F5F80932A02D3
:101FB000EDCDC13369F481E08093B70181E090E019
:101FC0000E94E60C80912A028F5F80932A02DECD68
:101FD000C23361F41093B70182E090E00E94E60CF6
:101FE00080912A028F5F80932A02D0CDC33361F49F
:101FF000D093B70183E090E00E94E60C80912A0222
:102000008F5F80932A02C2CDC43361F4F092B7018E
:1020100084E090E00E94E60C80912A028F5F80931A
:102020002A02B4CDC53361F40093B70185E090E096
:102030000E94E60C80912A028F5F80932A02A6CD2F
:10204000C63369F486E08093B70186E090E00E9491
:10205000E60C80912A028F5F80932A0297CDC733C6
:1020600069F487E08093B70187E090E00E94E60C76
:1020700080912A028F5F80932A0288CDC83361F451
:10208000C092B70188E090E00E94E60C80912A029D
:102090008F5F80932A027ACDC93361F4D092B70161
:1020A00089E090E00E94E60C80912A028F5F809385
:1020B0002A026CCDC13419F4F0922A0267CDC234E1
:1020C00009F059CFB1CED43051F561E085E00E94DE
:1020D000D906C03361F41092B60190E080E00E940E
:1020E000E60C80912A028F5F80932A024FCDC13384
:1020F00069F481E08093B60181E090E00E94E60CF3
:1021000080912A028F5F80932A0240CDC13419F456
:1021100000932A023BCDC23409F02DCF26CFD53013
:1021200009F0B9C061E086E00E94D906C03361F4CD
:102130001092B50190E080E00E94E60C80912A02A6
:102140008F5F80932A0222CDC13369F481E08093AE
:10215000B50181E090E00E94E60C80912A028F5F39
:1021600080932A0213CDC23361F41093B50182E04B
:1021700090E00E94E60C80912A028F5F80932A02F1
:1021800005CDC33381F48091B6018111FFCCE0927B
:10219000B50183E090E00E94E60C80912A028F5FF7
:1021A00080932A02F3CCC43381F48091B60181116B
:1021B000EDCCF092B50184E090E00E94E60C8091B5
:1021C0002A028F5F80932A02E1CCC53381F480918B
:1021D000B6018111DBCC0093B50185E090E00E944F
:1021E000E60C80912A028F5F80932A02CFCCC633FF
:1021F00089F48091B6018111C9CC86E08093B50144
:1022000086E090E00E94E60C80912A028F5F809326
:102210002A02BCCCC73389F48091B6018111B6CCB7
:1022200087E08093B50187E090E00E94E60C809102
:102230002A028F5F80932A02A9CCC83381F480914F
:10224000B6018111A3CCC092B50188E090E00E9454
:10225000E60C80912A028F5F80932A0297CCC933C3
:1022600081F48091B601811191CCD092B50189E0C1
:1022700090E00E94E60C80912A028F5F80932A02F0
:1022800085CCC13421F486E080932A027FCCC2340D
:1022900009F071CE11CFD63009F047C061E088E077
:1022A0000E94D906C03361F41092B40190E080E03E
:1022B0000E94E60C80912A028F5F80932A0266CCEE
:1022C000C13369F481E08093B40181E090E00E9421
:1022D000E60C80912A028F5F80932A0257CCC2338A
:1022E00061F41093B40182E090E00E94E60C8091CA
:1022F0002A028F5F80932A0249CCC33361F4E092B3
:10230000B40183E090E00E94E60C80912A028F5F86
:1023100080932A023BCCC13421F487E080932A02C7
:1023200035CCC23409F027CEF3CED73009F0C4C083
:1023300061E089E00E94D906C03361F41092B301D4
:1023400090E080E00E94E60C80912A028F5F8093EB
:102350002A021CCCC13369F481E08093B30181E08F
:1023600090E00E94E60C80912A028F5F80932A02FF
:102370000DCCC23389F48091B401833008F006CCCF
:102380001093B30182E090E00E94E60C80912A0253
:102390008F5F80932A02FACBC33389F48091B40112
:1023A000833008F0F3CBE092B30183E090E00E9429
:1023B000E60C80912A028F5F80932A02E7CBC43318
:1023C00089F48091B401833008F0E0CBF092B3013E
:1023D00084E090E00E94E60C80912A028F5F809357
:1023E0002A02D4CBC53389F48091B401833008F03C
:1023F000CDCB0093B30185E090E00E94E60C809184
:102400002A028F5F80932A02C1CBC63391F4809158
:10241000B401833008F0BACB86E08093B30186E044
:1024200090E00E94E60C80912A028F5F80932A023E
:10243000ADCBC73391F48091B401833008F0A6CBC3
:1024400087E08093B30187E090E00E94E60C8091E2
:102450002A028F5F80932A0299CBC83389F4809136
:10246000B401833008F092CBC092B30188E090E0D1
:102470000E94E60C80912A028F5F80932A0286CB0D
:10248000C93389F48091B401833008F07FCBD092B6
:10249000B30189E090E00E94E60C80912A028F5FF0
:1024A00080932A0273CBC13419F4C0922A026ECBF6
:1024B000C23409F060CDE7CED83009F080C08091F9
:1024C00000018823C9F10E94300682E790E00E9453
:1024D000F60661E080E00E94D906D0911C02DA3055
:1024E00020F480E790E00E94F6068D2F0E94DF0C1A
:1024F0008EE690E00E94F606D0911A02DA3020F4BF
:102500008CE690E00E94F6068D2F0E94DF0C8AE692
:1025100090E00E94F606D0911802DA3020F488E6A6
:1025200090E00E94F6068D2F0E94DF0C61E080E0B3
:102530000E94D90610920001C03361F41092B201DA
:1025400090E080E00E94E60C80912A028F5F8093E9
:102550002A021CCBC13369F481E08093B20181E08F
:1025600090E00E94E60C80912A028F5F80932A02FD
:102570000DCBC23361F41093B20182E090E00E946F
:10258000E60C80912A028F5F80932A02FFCAC13431
:1025900031F480912A028F5F80932A02F7CAC234F5
:1025A00009F0E9CC80912A02815080932A0280911F
:1025B0002902882309F4EACA109229028DCBD93066
:1025C00009F0BAC061E081E00E94D906C03361F42D
:1025D0001092B10190E080E00E94E60C80912A0206
:1025E0008F5F80932A02D2CAC13369F481E080935D
:1025F000B10181E090E00E94E60C80912A028F5F99
:1026000080932A02C3CAC23361F41093B10182E0FD
:1026100090E00E94E60C80912A028F5F80932A024C
:10262000B5CAC33361F4E092B10183E090E00E9447
:10263000E60C80912A028F5F80932A02A7CAC433D6
:1026400089F48091B201833008F0A0CAF092B10100
:1026500084E090E00E94E60C80912A028F5F8093D4
:102660002A0294CAC53389F48091B201823008F0FD
:102670008DCA0093B10185E090E00E94E60C809144
:102680002A028F5F80932A0281CAC63391F4809117
:10269000B201823008F07ACA86E08093B10186E008
:1026A00090E00E94E60C80912A028F5F80932A02BC
:1026B0006DCAC73391F48091B201823008F066CAC6
:1026C00087E08093B10187E090E00E94E60C809162
:1026D0002A028F5F80932A0259CAC83389F48091F5
:1026E000B201823008F052CAC092B10188E090E095
:1026F0000E94E60C80912A028F5F80932A0246CACC
:10270000C93389F48091B201823008F03FCAD09277
:10271000B10189E090E00E94E60C80912A028F5F6F
:1027200080932A0233CAC13419F470922A022ECA45
:10273000C23409F020CCB9CEDA3009F064C061E0CF
:1027400083E00E94D906C03361F41092B00190E09A
:1027500080E00E94E60C80912A028F5F80932A021B
:1027600015CAC13369F481E08093B00181E090E043
:102770000E94E60C80912A028F5F80932A0206CA8B
:10278000C23361F41093B00182E090E00E94E60C45
:1027900080912A028F5F80932A02F8C9C33361F4C3
:1027A000E092B00183E090E00E94E60C80912A0262
:1027B0008F5F80932A02EAC9C43361F4F092B001BA
:1027C00084E090E00E94E60C80912A028F5F809363
:1027D0002A02DCC9C53361F40093B00185E090E0C2
:1027E0000E94E60C80912A028F5F80932A02CEC954
:1027F000C13419F490922A02C9C9C23409F0BBCB82
:10280000D0922A02C3C9DB3009F09CC061E084E0A9
:102810000E94D906C03361F41092AF0190E080E0CD
:102820000E94E60C80912A028F5F80932A02AEC933
:10283000C13369F481E08093AF0181E090E00E94B0
:10284000E60C80912A028F5F80932A029FC9C233CF
:1028500061F41093AF0182E090E00E94E60C809159
:102860002A028F5F80932A0291C9C33361F4E092F8
:10287000AF0183E090E00E94E60C80912A028F5F16
:1028800080932A0283C9C43361F4F092AF0184E0DB
:1028900090E00E94E60C80912A028F5F80932A02CA
:1028A00075C9C53361F40093AF0185E090E00E94E3
:1028B000E60C80912A028F5F80932A0267C9C63393
:1028C00069F486E08093AF0186E090E00E94E60C18
:1028D00080912A028F5F80932A0258C9C73369F416
:1028E00087E08093AF0187E090E00E94E60C809142
:1028F0002A028F5F80932A0249C9C83361F4C092CB
:10290000AF0188E090E00E94E60C80912A028F5F80
:1029100080932A023BC9C93361F4D092AF0189E0A8
:1029200090E00E94E60C80912A028F5F80932A0239
:102930002DC9C13419F4A0922A0228C9C23409F061
:102940001ACBF3CEDC3009F062C061E086E00E9471
:10295000D906C03361F41092AE0190E080E00E948D
:10296000E60C80912A028F5F80932A020FC9C1333F
:1029700069F481E08093AE0181E090E00E94E60C72
:1029800080912A028F5F80932A0200C9C23361F4CA
:102990001093AE0182E090E00E94E60C80912A0242
:1029A0008F5F80932A02F2C8C33361F4E092AE01D4
:1029B00083E090E00E94E60C80912A028F5F809372
:1029C0002A02E4C8C43361F4F092AE0184E090E0DE
:1029D0000E94E60C80912A028F5F80932A02D6C85B
:1029E000C53361F40093AE0185E090E00E94E60CEF
:1029F00080912A028F5F80932A02C8C8C13419F4DB
:102A0000B0922A02C3C8C23409F0B5CAF3CEDD3091
:102A100009F083C061E087E00E94D906C03351F419
:102A200090E080E00E94E60C80912A028F5F809304
:102A30002A02ACC8C13351F481E090E00E94E60C58
:102A400080912A028F5F80932A02A0C8C23351F47A
:102A500082E090E00E94E60C80912A028F5F8093D2
:102A60002A0294C8C33351F483E090E00E94E60C3C
:102A700080912A028F5F80932A0288C8C43351F460
:102A800084E090E00E94E60C80912A028F5F8093A0
:102A90002A027CC8C53351F485E090E00E94E60C20
:102AA00080912A028F5F80932A0270C8C63351F446
:102AB00086E090E00E94E60C80912A028F5F80936E
:102AC0002A0264C8C73351F487E090E00E94E60C04
:102AD00080912A028F5F80932A0258C8C83351F42C
:102AE00088E090E00E94E60C80912A028F5F80933C
:102AF0002A024CC8C93351F489E090E00E94E60CE8
:102B000080912A028F5F80932A0240C8C13409F461
:102B100038CAC23409F02FCA0ECFDE3009F036C8E9
:102B20000E94E8062091BA0188EE93E0289F800178
:102B3000299F100D11248091B90124E6829F000D78
:102B4000111D11249091B8018AE0989F000D111D6C
:102B500011249091B701090F111D10930A020093DF
:102B600009029091B601C091B501D0E0989FC00DC7
:102B7000D11D1124D0932202C09321029091B4015F
:102B8000E090B301F12C989FE00CF11C1124F0921D
:102B90002402E09223029091B2019090B101989F9B
:102BA000900C112490921C02B090AF019091B00152
:102BB000AB2C989FA00C1124A0921A029091AE0108
:102BC000989FB00C1124B09218022197CC30D105F7
:102BD00008F492C01092100210920F0210920E028E
:102BE00010920D0210920C0210920B0210910F0223
:102BF000105D00910D02F0900B028091AE03D1E0C8
:102C0000D0932F0280935102109230021092520200
:102C100090E080E00E941B08CAE08B2D6C2F0E9480
:102C2000161D8295807F682F690F8BE193E00E94CB
:102C3000EC078A2D6C2F0E94161D8295807F682FCD
:102C4000690F8BE193E00E94EC07892D6C2F0E94A5
:102C5000161D8295807F682F690F8BE193E00E949B
:102C6000EC0767E08BE193E00E94EC078F2D6C2F5F
:102C70000E94161D8295807F682F690F8BE193E07B
:102C80000E94EC07802F6C2F0E94161D8295807F7A
:102C9000890F806890E00E941B08812F6C2F0E9492
:102CA000161D8295807F682F690F8BE193E00E944B
:102CB000EC070E94F2008091AE03D0932F02809324
:102CC000510210923002109252028FE090E00E9466
:102CD0001B080E94F200DF91CF911F910F91FF908E
:102CE000EF90DF90CF90BF90AF909F907F906F90CC
:102CF0005F904F900C94B008670181E0C81AD1082A
:102D00009FE1C916D10408F065CFC801019784314D
:102D1000994008F05FCFCB30D105C1F4C8010E94C3
:102D200011072B013C01C80101960E94110764198B
:102D30007509860997096E3671408105910569F517
:102D40008EE190E09093300180932F01FE01EE0F11
:102D5000FF1FE75EFE4F808191818E159F050CF469
:102D600039CFC8010E9411078B019C010F5F1F4FD3
:102D70002F4F3F4FE9E1F1E090E080E08C179D0795
:102D80007CF441915191052E000C660B770B040FDA
:102D9000151F261F371F0196F1CF8DE190E0D2CF8E
:102DA0000D2C000CEE08FF08C701B601600F711F63
:102DB000821F931FEE24E394F12C0BE012E02DE030
:102DC00032E04FE052E00E94CB0B10CF1F920F92E7
:102DD0000FB60F9211242F933F934F935F936F93EE
:102DE0007F938F939F93AF93BF93EF93FF938EE760
:102DF00092E00E94F401FF91EF91BF91AF919F91FA
:102E00008F917F916F915F914F913F912F910F9093
:102E10000FBE0F901F9018951F920F920FB60F9232
:102E200011242F938F939F93EF93FF93E0918E0242
:102E3000F0918F028081E0919402F091950282FDE1
:102E40001BC09081809197028F5F8F7320919802B1
:102E5000821741F0E0919702F0E0E258FD4F958F24
:102E600080939702FF91EF919F918F912F910F90F7
:102E70000FBE0F901F9018958081F4CF1F920F9274
:102E80000FB60F9211242F933F938F939F93AF937D
:102E9000BF938091FF0190910002A0910102B09137
:102EA00002023091FE0123E0230F2D3768F126E85E
:102EB000230F0296A11DB11D2093FE018093FF01F7
:102EC00090930002A0930102B0930202809103024A
:102ED00090910402A0910502B09106020196A11DF5
:102EE000B11D8093030290930402A0930502B09356
:102EF0000602BF91AF919F918F913F912F910F90BB
:102F00000FBE0F901F9018950196A11DB11DD4CF33
:102F10001F920F920FB60F9211242F933F934F934E
:102F20005F936F937F938F939F93AF93BF93EF9331
:102F3000FF938091B900887F803609F44AC0F0F58C
:102F4000883209F4A7C018F5803109F49BC0B8F4A1
:102F5000882309F405C1883009F494C0FF91EF91EA
:102F6000BF91AF919F918F917F916F915F914F91A1
:102F70003F912F910F900FBE0F901F9018958831A1
:102F800009F488C0803251F78093590214C080340C
:102F900009F4A5C040F48033B9F38833F9F680937F
:102FA000590285ECBCC0803509F489C0883509F424
:102FB0009EC0883499F60E947E07D0CF883909F4E4
:102FC00094C038F5883729F050F4883611F08037EE
:102FD00029F683E080935B021092FD0157C0883888
:102FE00009F483C0803919F0803809F0B7CF809197
:102FF000FD01803208F079C0E091FD0181E08E0F83
:103000008093FD018091BB00F0E0E352FE4F80838E
:103010003DC0803B39F0E0F4803A09F485C0883A3D
:1030200009F09CCF84E080935B021092DC01109247
:10303000DB01E0912D02F0912E0209958091DB01D8
:1030400081110FC081E08093DB011092BB0109C0A8
:10305000803C09F4A6CF883C09F4A3CF883B09F053
:103060007DCFE091DC0181E08E0F8093DC01F0E008
:10307000E554FE4F80818093BB009091DC018091EC
:10308000DB0131C0809154028093BB0085EC8093BA
:10309000BC0064CF90915602809155029817B8F504
:1030A0008091570290915802E091560221E02E0F34
:1030B00020935602E80FF92FF11D8081E5CF209172
:1030C000570230915802E091560281E08E0F8093B2
:1030D00056028091BB00E20FF32FF11D8083909187
:1030E000560280915502981788F285E8D0CF20913A
:1030F000570230915802E091560281E08E0F809382
:1031000056028091BB00E20FF32FF11D8083809166
:103110005A02811150CF81E08093530284EA809358
:10312000BC0010925B021ACF85EC8093BC00109219
:103130005B028091FD01803230F4E091FD01F0E00E
:10314000E352FE4F10826091FD0170E0E0912B028E
:10315000F0912C028DED91E009951092FD01FECECB
:103160001092590228CF109281021092800288EEAC
:1031700093E0A0E0B0E08093820290938302A0935A
:103180008402B093850222E731E030937F022093DE
:103190007E0225EC30E030938B0220938A0224ECEF
:1031A00030E030938D0220938C0220EC30E030939D
:1031B0008F0220938E0221EC30E030939102209315
:1031C000900222EC30E0309393022093920226EC9E
:1031D00030E030939502209394021092970210925F
:1031E00098021092990210929A0210921E03109265
:1031F0001D0380931F0390932003A0932103B0939A
:10320000220384E891E090931C0380931B0380E2E7
:103210008093C9031092CC0380E590E09093CB0398
:103220008093CA0388E690E09093AF038093AE0347
:103230001092B0031092B1031092B2031092B30334
:103240001092B4031092B5031092B6038FE097E288
:103250009093B8038093B70383E08093B9031092EF
:10326000BA031092BB031092BC031092BD031092DC
:10327000BE031092BF0390E89093C0031092C10365
:103280001092C2031092C3031092C4031092C5039C
:103290009EEF9093C6031092C7031092C80310923A
:1032A00099031092980320EA31E03093970320931A
:1032B000960398E090939A039FEF90939B0397E077
:1032C00090939C0396E090939D0395E090939E03CA
:1032D00094E090939F038093A0031092A103109217
:1032E000A2031092A3031092A4031092A50381E0FD
:1032F0000E9437061092290310922D0310922C037E
:1033000010922E0386E991E090932803809327037F
:10331000E3E4F3E01082148213821582369683E090
:10332000EF37F807B9F786E391E090938A0380932B
:10333000890382E391E090938C0380938B0384E074
:1033400080938D0380938E038AE391E090938803AA
:10335000809387038AE090E09093900380938F039B
:1033600084EF91E0909392038093910310929503E0
:103370001092940310928303109284031092850399
:1033800010928603109293030895CF93DF9300D099
:10339000CDB7DEB7789484B5836084BD85B583608E
:1033A00085BD80916E00816080936E0092E0909365
:1033B00081008091810081608093810080918000F4
:1033C0008160809380008091B10084608093B1001F
:1033D0008091B00081608093B00087E880937A008C
:1033E0001092C100E0918E02F0918F029083E091E3
:1033F0008A02F0918B021082E0918C02F0918D0292
:103400008FEC808310929602E0919202F0919302E9
:1034100086E08083E0919002F0919102808188693A
:103420008083E0919002F091910280818F7D808372
:103430000E940A030E940A0388E690E09093AF037B
:103440008093AE0382E00E94370661E081E10E9432
:103450003C0362E082E00E943C030E94300660E090
:1034600083E00E94D9068FEF90E00E94F60661E0AB
:1034700081E00E94D90681EF90E00E94F60640E0CC
:1034800060E08FE30E94230864EF71E080E090E049
:103490000E94AC0344E160E086E00E94230864ECF3
:1034A00079E080E090E00E94AC0340E061E081E1DF
:1034B0000E94230864EF71E080E090E00E94AC037A
:1034C00042E050E067E072E090E080E00E94440B50
:1034D00080910702909108028F3F910509F054C036
:1034E0000E940F0D1A821982CE0101967C01D12C07
:1034F000C12C02E010E0AA24A3942091C90330E07B
:10350000C601B9010E94221D281B390B2017310763
:1035100008F0202FB22E9EE1921710F45EE1B52E36
:103520008091CA03A0922F02809351021092300220
:10353000109252028D2D90E00E941B08C60199271F
:103540000E941B087E2C4701882D87198B1540F49B
:10355000F40161914F018BE193E00E94EC07F4CFFD
:1035600066E070E080E090E00E94AC030E94F20010
:103570006B2D70E0061B170BC60ED71EE60EF71E4E
:103580000115110509F0B9CF24E6622E712C30E93E
:10359000C32EDD24D39440E0442E40E0542E332447
:1035A00033949EE1292E0E944604813409F0BBC168
:1035B00010922A020E940F0D0E94DE03AB01BC0193
:1035C0008091250290912602A0912702B0912802B5
:1035D00088519C4FAF4FBF4F84179507A607B70779
:1035E00008F095C10E94DE036093250270932602C5
:1035F00080932702909328020E94B0082091B5037F
:1036000030E02053384F3093100220930F02009186
:10361000B40310E010930E0200930D02E091B30387
:10362000F0E0F0930C02E0930B028091B2038093E0
:103630001C028091B10380931A028091B0038093A1
:103640001802015011090C30110508F475C11092CF
:103650000A02109209021092220210922102109284
:103660002402109223020E9430068AE391E00E9415
:10367000F6068091090290910A020E94E60C88E306
:1036800091E00E94F60680912102909122020A9711
:1036900024F486E391E00E94F60680912102909145
:1036A00022020E94E60C84E391E00E94F6068091DB
:1036B0002302909124020A9724F482E391E00E946D
:1036C000F60680912302909124020E94E60C61E0AC
:1036D00080E00E94D9068AE291E00E94F6061091ED
:1036E0001C021A3020F488E291E00E94F606812F35
:1036F0000E94DF0C86E291E00E94F60610911A0209
:103700001A3020F484E291E00E94F606812F0E9494
:10371000DF0C82E291E00E94F606109118021A3046
:1037200020F480E291E00E94F606812F0E94DF0CD7
:10373000E0902302F09024028091210290912202D5
:1037400030E020E0873091051CF006972AEB30E04E
:103750008230910544F00197289EA001299E500DCA
:103760001124240F351FE20EF31EF0922002E09286
:103770001F0280911D0290911E028E159F0511F06F
:103780003092310180913101882309F45EC099E0C3
:103790009E9D80019F9D100D11246BE172E0C80178
:1037A00008970E94460B69E172E0C80107970E94E2
:1037B000460B67E172E0C80106970E94460B66E17E
:1037C00072E0C80105970E94460B65E172E0C801EE
:1037D00004970E94460B64E172E0C80103970E94BF
:1037E000460B63E172E0C80102970E94460B62E15A
:1037F00072E0C80101970E94460B61E172E0C801C6
:103800000E94460B10923101F0921E02E0921D02BE
:1038100082E00E94AC020197C1F4809119028E31BE
:1038200008F4E5C08E5180931902809115028E3103
:1038300008F4E4C08E5180931502809112028E31FB
:1038400008F4E3C08E518093120280911C02909183
:103850001B0289130CC020911A029091190229139E
:1038600006C02091180290911702291701F190913A
:10387000160289130CC020911A0290911502291387
:1038800006C02091180290911402291781F090919E
:10389000130289133CC090911A028091120298136E
:1038A00036C09091180280911102981330C061E0E7
:1038B00081E10E94D8020E94300660E084E00E940C
:1038C000D90688E191E00E94F60661E081E00E945D
:1038D000D9068AE091E00E94F60682E00E94AC02DE
:1038E000019709F099C042E060E081E10E9423085D
:1038F00060E477E78BE190E00E94AC0340E060E099
:103900008EE00E94230860E081E10E94D802411409
:10391000510409F448CE0E94E001882309F441CE05
:103920000E9400003ECE823409F046CEF8E0F093CB
:103930002A02309229023ECE7F0181E0E81AF10886
:103940009FE1E916F10408F082CE01301105B9F4C7
:10395000C90183709927892BA1F5C901B3010E9480
:10396000361D892B31F4C901B6010E94361D892B01
:1039700041F58DE190E09093040180930301D8011B
:10398000AA0FBB1FAF5FBE4F8D919C918E179F07F3
:103990000CF45DCEC9010E944A0BE1E0F1E030E099
:1039A00020E02017310784F481909190092C000CBD
:1039B000AA08BB08680D791D8A1D9B1D2F5F3F4F0C
:1039C000F0CF8CE190E0D7CF0F2C000C000B110B47
:1039D0006E0D7F1D801F911FF12CE12C03E212E080
:1039E00021E232E049E052E00E94CB0B3CCE9091C4
:1039F0001B02915090931B02825E15CF909116028C
:103A0000915090931602825E16CF909113029150BE
:103A100090931302825E17CF41E060E081E10E9443
:103A2000230860EE73E984E090E066CF991B79E0AB
:103A300004C0991F961708F0961B881F7A95C9F73E
:103A400080950895AA1BBB1B51E107C0AA1FBB1F8D
:103A5000A617B70710F0A61BB70B881F991F5A951A
:103A6000A9F780959095BC01CD01089597FB072E8D
:103A700016F4009407D077FD09D00E94221D07FCA0
:103A800005D03EF4909581959F4F0895709561956E
:103A90007F4F0895A1E21A2EAA1BBB1BFD010DC08A
:103AA000AA1FBB1FEE1FFF1FA217B307E407F507EE
:103AB00020F0A21BB30BE40BF50B661F771F881FCA
:103AC000991F1A9469F760957095809590959B0160
:103AD000AC01BD01CF010895052E97FB1EF40094A3
:103AE0000E94831D57FD07D00E944A1D07FC03D08A
:103AF0004EF40C94831D50954095309521953F4F81
:103B00004F4F5F4F089590958095709561957F4FC9
:103B10008F4F9F4F08950E94A41DB7FF0895821BE9
:103B2000930B08950024A7FD00942A173005400543
:103B3000500560057005800590050895EE0FFF1F84
:103B40000590F491E02D0994A29FB001B39FC001AC
:103B5000A39F700D811D1124911DB29F700D811DB9
:103B60001124911D0895F894FFCF011F001C001F20
:103B7000001E001F001E001F001F001E001F001E51
:103B8000001F001F001F001F001F001F001F001E3E
:103B9000001E001E001E001E001D00010D0E0F1055
:103BA0000C0B0A0931323341343536423738394348
:103BB0002A30234406008A01D002120379046306E6
:103BC000A5064A071809E104B8037B03A2036203B0
:103BD00065034C03500354030000000016027601F5
:103BE000A3016302D401B201C60100000000EC078A
:103BF000BF072008AF076D01CC00B0070000000030
:103C000078030603D50200000000F00676012008C4
:023C100010079B
:103E000001C0B7C0112484B790E89093610010926C
:103E10006100882361F0982F9A70923041F081FF01
:103E200002C097EF94BF282E80E0C6D0E9C085E09D
:103E30008093810082E08093C00088E18093C1007C
:103E400080E18093C40086E08093C2008EE0B4D00D
:103E5000259A84E020E33CEF91E0309385002093A5
:103E6000840096BBB09BFECF1D9AA8954091C000E0
:103E700047FD02C0815089F793D0813479F490D006
:103E8000182FA0D0123811F480E004C088E0113857
:103E900009F083E07ED080E17CD0EECF823419F44B
:103EA00084E198D0F8CF853411F485E0FACF8535D8
:103EB00041F476D0C82F74D0D82FCC0FDD1F82D01C
:103EC000EACF863519F484E085D0DECF843691F5CB
:103ED00067D066D0F82E64D0D82E00E011E05801EB
:103EE0008FEFA81AB80A5CD0F80180838501FA1018
:103EF000F6CF68D0F5E4DF1201C0FFCF50E040E01C
:103F000063E0CE0136D08E01E0E0F1E06F0182E0A7
:103F1000C80ED11C4081518161E0C8012AD00E5FDA
:103F20001F4FF601FC10F2CF50E040E065E0CE01FB
:103F300020D0B1CF843771F433D032D0F82E30D0C6
:103F400041D08E01F80185918F0123D0FA94F110B0
:103F5000F9CFA1CF853739F435D08EE11AD084E975
:103F600018D08BE097CF813509F0A9CF88E024D015
:103F7000A6CFFC010A0167BFE895112407B600FC33
:103F8000FDCF667029F0452B19F481E187BFE895D4
:103F900008959091C00095FFFCCF8093C6000895CE
:103FA0008091C00087FFFCCF8091C00084FD01C0DC
:103FB000A8958091C6000895E0E6F0E098E190832E
:103FC00080830895EDDF803219F088E0F5DFFFCFC0
:103FD00084E1DFCFCF93C82FE3DFC150E9F7CF9162
:023FE000F1CF1F
:023FFE000008B9
:00000001FF
