:020000040000FA
:100000000C949D000C94C5000C94C5000C94C50084
:100010000C94C5000C94C5000C94C5000C94C5004C
:100020000C94C5000C94C5000C94C5000C94C5003C
:100030000C94C5000C94C5000C94C5000C94C5002C
:100040000C947D180C94C5000C944B180C94251836
:100050000C94C5000C94C5000C94C5000C94C5000C
:100060000C94C7180C94C50030003A0030003A00D8
:1000700030005365742054696D653A0030002F00DC
:1000800030002F0053657420446174653A0000000D
:100090000000240027002A0000000000250028009E
:1000A0002B000000000023002600290004040404A3
:1000B0000404040402020202020203030303030312
:1000C00001020408102040800102040810200102EF
:1000D00004081020000000080002010000030407CB
:1000E0000000000000000000303933372039333879
:1000F000203637353200507261792054696D65724F
:100100000030393337203933382036373532005014
:100110006C6179696E670030003A0030003A003057
:100120000054696D653A20200030002F0030002F08
:1001300000446174653A2000E61911241FBECFEF18
:10014000D8E0DEBFCDBF11E0A0E0B1E0ECE4FEE31B
:1001500002C005900D92A83AB107D9F723E0A8EAAA
:10016000B1E001C01D92AB3EB207E1F710E0CDE96E
:10017000D0E004C02197FE010E940F1FCC39D107A7
:10018000C9F70E94F81A0C94241F0C940000909157
:100190009B0280919A022FEF3FEF981748F4E92FC6
:1001A000F0E0E658FD4F208130E09F5F90939B0286
:1001B000C901089590919B0280919A022FEF3FEF21
:1001C000981748F4E92FF0E0E658FD4F208130E021
:1001D0009F5F90939B02C901089596E0899FD0018B
:1001E0001124AB5BBC4F90967C936E935F9791E02C
:1001F00091969C939197E091B203F091B303909103
:10020000B103992339F0309751F0811108C08091E2
:1002100061030994309719F05C968C91FACF089598
:1002200080919A0290919B02891B990B08950895E1
:100230000895AF92BF92CF92DF92EF92FF920F9309
:100240001F93CF93DF936C017B018B01040F151F6C
:10025000EB015E01AE18BF08C017D10759F06991D4
:10026000D601ED91FC910190F081E02DC601099538
:10027000892B79F7C501DF91CF911F910F91FF90E5
:10028000EF90DF90CF90BF90AF900895FC01538D19
:10029000448D252F30E0842F90E0821B930B541760
:1002A00010F0CF96089501970895FC01918D828DED
:1002B000981761F0A28DAE0FBF2FB11D5D968C9186
:1002C000928D9F5F9F73928F90E008958FEF9FEFC5
:1002D0000895FC01918D828D981731F0828DE80F81
:1002E000F11D858D90E008958FEF9FEF0895FC013B
:1002F000918D228D892F90E0805C9F4F821B910908
:100300008F73992708958CE992E00E94770121E08C
:10031000892B09F420E0822F089580E090E0892B5A
:1003200029F00E94830181110C9400000895FC01C2
:10033000A48DA80FB92FB11DA35ABF4F2C91848D46
:1003400090E001968F739927848FA689B7892C93A3
:10035000A089B1898C91837080648C93938D848DF6
:10036000981306C00288F389E02D80818F7D8083F9
:100370000895EF92FF920F931F93CF93DF93EC01B9
:1003800081E0888F9B8D8C8D98131AC0E889F9893C
:10039000808185FF15C09FB7F894EE89FF8960833F
:1003A000E889F98980818370806480839FBF81E0C0
:1003B00090E0DF91CF911F910F91FF90EF90089502
:1003C000F62E0B8D10E00F5F1F4F0F731127E02EDD
:1003D0008C8D8E110CC00FB607FCFACFE889F98915
:1003E000808185FFF5CFCE010E949701F1CFEB8D83
:1003F000EC0FFD2FF11DE35AFF4FF0829FB7F894E9
:100400000B8FEA89FB8980818062CFCFCF93DF9306
:10041000EC01888D8823B9F0AA89BB89E889F9891C
:100420008C9185FD03C0808186FD0DC00FB607FC51
:10043000F7CF8C9185FFF2CF808185FFEDCFCE0184
:100440000E949701E9CFDF91CF910895833081F029
:1004500028F4813099F08230A9F008958730A9F00E
:100460008830C9F08430B1F4809180008F7D03C062
:10047000809180008F7780938000089584B58F7776
:1004800084BD089584B58F7DFBCF8091B0008F77B8
:100490008093B00008958091B0008F7DF9CFCF9305
:1004A000DF93282F30E0F901EC52FF4F8491F901DE
:1004B000E054FF4FD491F901E455FF4FC491CC2390
:1004C000A1F081110E942602EC2FF0E0EE0FFF1F39
:1004D000EE55FF4FA591B491EC91ED2381E090E0B2
:1004E00009F480E0DF91CF91089580E090E0FACFA9
:1004F000862F0C944F021F93CF93DF93282F30E069
:10050000F901EC52FF4F8491F901E054FF4FD4916F
:10051000F901E455FF4FC491CC23A9F0162F8111A6
:100520000E942602EC2FF0E0EE0FFF1FE856FF4F6F
:10053000A591B4918FB7F894EC91111108C0D095A2
:10054000DE23DC938FBFDF91CF911F910895DE2BC7
:10055000F8CF862F642F0C947B02CF93DF9390E02B
:10056000FC01E054FF4F249184559F4FFC0184917E
:100570008823C9F090E0880F991FFC01E257FF4FD4
:10058000A591B491FC01E856FF4FC591D49161113A
:100590000DC09FB7F8948C91209582238C9388810D
:1005A000282328839FBFDF91CF910895623051F4B3
:1005B0009FB7F8943C91822F809583238C93E88198
:1005C0002E2BEFCF8FB7F894EC912E2B2C938FBF5F
:1005D000EACF862F642F0C94AD023FB7F894809138
:1005E000FE019091FF01A0910002B091010226B599
:1005F000A89B05C02F3F19F00196A11DB11D3FBF5B
:10060000BA2FA92F982F8827BC01CD01620F711D29
:10061000811D911D42E0660F771F881F991F4A9523
:10062000D1F708958F929F92AF92BF92CF92DF92AF
:10063000EF92FF924B015C010E94ED026B017C0185
:100640000E94ED026C197D098E099F09683E734076
:1006500081059105A8F321E0821A9108A108B1084B
:1006600088EEC80E83E0D81EE11CF11C81149104B1
:10067000A104B10429F7FF90EF90DF90CF90BF90D5
:10068000AF909F908F9008952FB7F8946091FA01E2
:100690007091FB018091FC019091FD012FBF0895A5
:1006A0000F931F93CF93DF93C82FD62F86E0C89F59
:1006B000F0011124EB5BFC4F11A2878D90A18130DA
:1006C0009105F1F058F082309105F1F1039709F4AA
:1006D00040C0DF91CF911F910F9108956623C9F318
:1006E00061E070E08C2F0E94ED000E944403609353
:1006F0009D0370939E0380939F039093A003E9CF83
:100700000E94440300919D0310919E0320919F033A
:100710003091A003AB01BC01401B510B620B730B6A
:100720008091AF039091B003B0E0A0E084179507EB
:10073000A607B70748F462E070E08C2FDF91CF91F5
:100740001F910F910C94ED0063E070E0D111C1CFC7
:10075000F4CF70E060E0F1CF6F927F928F929F9222
:10076000AF92BF92CF92DF92EF92FF920F931F93BF
:10077000CF93DF9381E08093B1030E944403009103
:10078000A1031091A2032091A3033091A403AB0114
:10079000BC01401B510B620B730B8091AD03909118
:1007A000AE03B0E0A0E084179507A607B70708F0EE
:1007B00014C1C0E08091AB03C81760F4E091A703B7
:1007C000F091A803EC0FF11D62E080810E94AD0260
:1007D000CF5FF0CF712C812C912C540183948091A8
:1007E000AC03781608F05FC0072D10E0E091A90374
:1007F000F091AA03E00FF11F61E080810E94AD0239
:10080000E091A903F091AA03E00FF11F60E080815D
:100810000E947B02D501C401072C04C0880F991FD8
:10082000AA1FBB1F0A94D2F76C017C01E094F094DC
:10083000612C8091AB036816F8F4C62DD0E0E091EE
:10084000A703F091A803EC0FFD1F80810E944F02C7
:100850002496CC0FDD1FCB5BDC4F892B41F48881C4
:1008600099818C299D29998388836394E2CF88811B
:1008700099818E219F21F7CFE091A903F091AA03DE
:10088000E00FF11F61E080810E947B028091A9034B
:100890009091AA03080F191F60E0F80180810E945F
:1008A000AD0273949CCFC5E4D3E0FE018FEF9FEFC0
:1008B000278D30A1232B21F4148E968F858F11A2C2
:1008C000369623E0E138F20799F7F12C96E0D92E1D
:1008D0008091AB03F81608F050C0E12C0F2D10E00A
:1008E000000F111F035B1C4F2091AC03E21608F0B0
:1008F00042C0F801608171810E2C02C07695679527
:100900000A94E2F7F29E900111242E0D311DE5E4C8
:10091000F3E080E0458D568D2417350709F461C05A
:100920008F5F36968A30B1F760FF23C0E5E4F3E0CD
:1009300090E080E0448D411117C0E091A503F09153
:10094000A603E20FF31F4081D89EF001D99EF00D5F
:100950001124EB5BFC4F448F368F258F10A2178E2E
:1009600061E00E94500305C0019636968A309105D9
:1009700009F7E394B9CFF394ABCF10E089A18111CB
:10098000182F2696F3E0C138DF07C1F70E94440311
:100990006093A1037093A2038093A3039093A40395
:1009A0001123D9F0809166038823B9F08091640304
:1009B00090916503019789F480916103DF91CF9154
:1009C0001F910F91FF90EF90DF90CF90BF90AF906D
:1009D0009F908F907F906F9008951092B10380E068
:1009E000EDCF6170BECF0895CF92DF92EF92FF926C
:1009F0000F931F93CF93DF93CDB7DEB7A4970FB6B6
:100A0000F894DEBF0FBECDBF8C0182E1EAE4F1E0D5
:100A1000DE01119601900D928A95E1F782E1ECE5F5
:100A2000F1E0DE01539601900D928A95E1F7FE0107
:100A3000319690E080E02191319102171307DCF5A7
:100A4000880F991FE1E0F0E0EC0FFD1FE80FF91FA0
:100A5000C288D3880D2C000CEE08FF082FE231E08D
:100A6000D8010E94FC1E6C0D7D1D8E1D9F1D22EE67
:100A700034E040E050E00E94DD1E69017A012DE67D
:100A800031E0D8010E94FC1E6E5C7644824E9F4F7E
:100A90006C0D7D1D8E1D9F1DA4960FB6F894DEBFB4
:100AA0000FBECDBFDF91CF911F910F91FF90EF90BF
:100AB000DF90CF90089501968930910509F0BBCF62
:100AC000EBCF2091D601260F3327331F213231057A
:100AD000ECF420917402FC0190E080E0243069F095
:100AE00082E00895A091D6012191AC014A545E4F55
:100AF000A40FB52FB11D2C930196861798F3809102
:100B0000D601680F6093D60180E0089581E00895D2
:100B10001092740281E08093730210926E0261E081
:100B200082E10E947B0261E083E10E947B02E9EBAB
:100B3000F0E080818E7F808380818D7F808388E458
:100B40008093B80085E48093BC000895CF93DF9331
:100B500091E09093B5018823B9F0C091B800D0918D
:100B6000BA008091BC008A7B8093BC0060E082E187
:100B70000E947B0260E083E10E947B020E94880564
:100B8000D093BA00C093B800DF91CF910895CF926F
:100B9000DF92EF92FF920F931F93CF93DF93D09149
:100BA0004D0281E0D13208F09CC0C0914C020E94FD
:100BB000ED026B017C018091740281116CC082E0B6
:100BC0008093740281E0809373028FEF80937202AE
:100BD00010927102D0937002ACE2B2E0EEE4F2E067
:100BE00080E0D8138DC010926F0280916F02CC0FFD
:100BF000C82BC0936F0280916E02813009F084C0CF
:100C000010926E020E94ED026B017C0180916F02D6
:100C10008093BB008091760290917702A091780238
:100C2000B0917902892B8A2B8B2BA1F00E94ED02C7
:100C3000009176021091770220917802309179022A
:100C40006C197D098E099F090617170728073907B0
:100C500008F442C08091BC0083FDD8CF85EC80931E
:100C6000BC000E94ED026B017C0180917402823015
:100C700009F44CC0809172028F3F09F469C08091E1
:100C80007202803209F466C080917202803309F4E6
:100C900063C084E026C08091760290917702A09193
:100CA0007802B0917902892B8A2B8B2B09F483CFA0
:100CB0000E94ED0200917602109177022091780255
:100CC000309179026C197D098E099F090617170763
:100CD0002807390708F06FCF809175020E94A6059A
:100CE00085E010922B0210924D0210922A02DF91A1
:100CF000CF911F910F91FF90EF90DF90CF900895CB
:100D00009D9191938F5F6DCF85EEA9CF80917602F3
:100D100090917702A0917802B0917902892B8A2B69
:100D20008B2B09F4A2CF0E94ED0200917602109164
:100D3000770220917802309179026C197D098E0931
:100D40009F09061717072807390708F08ECFC4CF69
:100D500080E0C7CF82E0C5CF83E0C3CF0895E091A4
:100D60009B0280919A02E81730F4F0E0E658FD4FBC
:100D7000808190E008958FEF9FEF0895CF92DF92EA
:100D8000EF92FF920F931F93CF93DF937C01CB01E0
:100D90008A0120912A02222389F0EB016B01C40E03
:100DA000D51ECC15DD0569F06991D701ED91FC9157
:100DB0000190F081E02DC7010995F3CF642F0E94C7
:100DC0006105C801DF91CF911F910F91FF90EF90C6
:100DD000DF90CF900895CF93DF931F92CDB7DEB70A
:100DE000698320912A022223F9F020914D022032BA
:100DF00058F021E030E0FC013383228390E080E072
:100E00000F90DF91CF91089580912B02E82FF0E0B1
:100E1000E45DFD4F998190838F5F80932B028093D7
:100E20004D0281E090E0ECCF61E0CE0101960E949E
:100E30006105F7CF682F89E393E00C94EB0690E00F
:100E400080E00895EF92FF920F931F93CF93DF936B
:100E5000CDB7DEB72A970FB6F894DEBF0FBECDBF71
:100E60001E821D829EE799839FEF9A8396E09B8363
:100E70009FEE9A878C836E834F839EEF988790E0D6
:100E80008B5F9E4F860F911D480F592F511D519515
:100E90004195510949878E010F5F1F4F7E018BE0FD
:100EA000E80EF11CF80161918F018CE992E00E943B
:100EB000B901E016F106B1F72A960FB6F894DEBF35
:100EC0000FBECDBFDF91CF911F910F91FF90EF909B
:100ED0000895CF92DF92EF92FF920F931F93CF93DB
:100EE000DF93D82FC62F0E94ED026B017C01809109
:100EF0007402811168C0C13208F0C0E281E08093C1
:100F00007402809373029FEF9093720210927102A9
:100F10009C0F9093700280936F0280916F02DD0F9F
:100F2000D82BD0936F0280916E02813009F07FC080
:100F300010926E020E94ED026B017C0180916F02A3
:100F40008093BB008091760290917702A091780205
:100F5000B0917902892B8A2B8B2BA1F00E94ED0294
:100F600000917602109177022091780230917902F7
:100F70006C197D098E099F0906171707280739077D
:100F800008F442C08091BC0083FDD8CF85EC8093EB
:100F9000BC000E94ED026B017C01809174028130E3
:100FA00009F447C0809171028C1710F4C09171024E
:100FB000EEE4F2E0AAE7B2E080E08C1751F1919103
:100FC0009D938F5FFACF8091760290917702A091E6
:100FD0007802B0917902892B8A2B8B2B09F487CF69
:100FE0000E94ED0200917602109177022091780222
:100FF000309179026C197D098E099F090617170730
:101000002807390708F073CF809175020E94A60562
:10101000C0E010929B02C0939A028C2FDF91CF9177
:101020001F910F91FF90EF90DF90CF90089585EE84
:10103000AECF8091760290917702A0917802B09124
:101040007902892B8A2B8B2B09F4A7CF0E94ED0202
:101050000091760210917702209178023091790206
:101060006C197D098E099F0906171707280739078C
:1010700008F093CFC9CFCF93DF938091CC0391E059
:1010800090932A0280934C0210922B0210924D02F0
:1010900090E080E00E941A070E94C7052091D703C4
:1010A0008091CC039091CD0368E070E0213011F085
:1010B00063E170E00E9469070E94DA00982F929520
:1010C0009770CAE08F709C9F800D11248093CE038F
:1010D0000E94DA00982F929597708F709C9F800DD8
:1010E00011248093CF030E94DA00982F9295937079
:1010F0008F709C9F800D11248093D0030E94DA0092
:10110000982F92959F708F709C9F800D11248093D3
:10111000D4030E94DA00982F92959F708F709C9F45
:10112000800D11248093D1030E94DA0084FB99275B
:1011300090F98F709C9F800D11248093D2030E94A0
:10114000DA00982F92959F708F709C9F800D1124CC
:101150008093D3038FEF9FE79093D6038093D503BB
:101160008091D7038130B9F40E94DA0084FF0AC06D
:1011700087FD06C08FEF8093E403DF91CF91089540
:101180008EEFF9CF83709927019711F480E1F3CFA7
:101190001092E403F2CF1092D80380E88093DE032C
:1011A0000E94DA00282F221F2227221F9091D803A5
:1011B000922B9093D803982F929597708F709C9F45
:1011C000800D11248093D9030E94DA009C01B6E0BF
:1011D00035952795BA95E1F722709091D803292B80
:1011E0002093D803982F929597708F709C9F800DB5
:1011F00011248093DA030E94DA009C01D5E0359532
:101200002795DA95E1F724709091D803292B209344
:10121000D803982F929593708F709C9F800D112406
:101220008093DB030E94DA009C0144E0359527950A
:101230004A95E1F728703091D803232B322F3F7065
:1012400009F4C3C02093D803982F92959370CAE0F5
:101250008F709C9F800D11248093DC030E94DA0024
:101260009C0176E0359527957A95E1F7227090916B
:10127000DE03292B2093DE03982F929597708F70B1
:101280009C9F800D11248093DF030E94DA009C0153
:10129000E5E035952795EA95E1F724709091DE0316
:1012A000292B2093DE03982F929593708F709C9F2B
:1012B000800D11248093E0030E94DA009C01F4E089
:1012C00035952795FA95E1F728703091DE03232BA9
:1012D000322F3E7009F481C02093DE03982F9E7157
:1012E0008F70890F8093E1030E94DA0082FF80C033
:1012F0009EEF9093E40380FF78C09091D8039062B2
:101300009093D80381FF79C08091DE03806280933F
:10131000DE030E94DA00FC01B82F282F2B70C1E0F9
:1013200030E040E050E060E070E080E090E0A0E07D
:101330000E94031F09F4C0E0C093E503BB7081E085
:1013400009F480E08093E60321E0CF018B709927B8
:10135000892B09F420E02093E203EB71FF2781E061
:10136000EF2B09F480E08093DD030E94DA0087FD13
:1013700046C08093E3030E94DA00EC010E94DA0089
:101380009E01220F331F220F331F2C7F337056E034
:10139000959587955A95E1F783709927822B932B22
:1013A000C7FD2FC09093D6038093D5032091D5031A
:1013B0003091D60349E1429FC001439F900D112413
:1013C0009093D6038093D503D8CEAC01559547951D
:1013D000559547954071242B35CFAC0155954795D0
:1013E000559547954071242B77CF1092D8038ACF1B
:1013F00088718093E4031092D80380E888CF8150ED
:10140000B8CF9C6F0197CECFCF938091EA03811123
:101410000BC081E08093EA030E94040A6AE070E056
:1014200080E090E00E9412038091E80391E09093A5
:101430002A0280934C0210922B0210924D0290E0EF
:1014400080E00E941A0790E080E00E941A0766E0A0
:1014500070E080E090E00E9412030E94C70588239C
:1014600021F0CFEF8C2FCF91089561E070E0809153
:10147000E8039091E9030E94690766E070E080E06C
:1014800090E00E94120390919A0280919B0298171B
:1014900041F30E94DA00C82F61E070E080E090E044
:1014A0000E941203DFCFDF92EF92FF920F931F9300
:1014B000CF93DF938C01D62EE72ED42F8091EA03B1
:1014C00081110BC081E08093EA030E94040A6AE064
:1014D00070E080E090E00E9412038091E80391E0C8
:1014E00090932A0280934C0210922B0210924D028C
:1014F000812F90E00E941A07C80199270E941A07BD
:1015000066E070E080E090E00E9412030E94C70550
:10151000C82F81112BC06D2F70E08091E80390914E
:10152000E9030E94690766E070E080E090E00E94B5
:101530001203F0909A0280919B02F816B9F00D2DDB
:101540001E2D80919B02F81679F00E94DA00F801B6
:1015500081938F0161E070E080E090E00E941203CF
:10156000CF5FDC130CC0CD2F81E0DC1380E0DF9176
:10157000CF911F910F91FF90EF90DF900895EE248F
:10158000EA9480919B02F812DCCF61E070E080E089
:1015900090E00E941203EA94E110F3CFD2CF0C94B2
:1015A000530A41E050E00C94CF0A4F925F926F9241
:1015B0007F928F929F92AF92BF92CF92DF92EF92E3
:1015C000FF92CF93DF93EC012C01092E000C6608EB
:1015D00077082DE631E0DC010E94FC1E4B015C0126
:1015E000C301B20124E030E040E050E00E94DD1E83
:1015F000820E931EA41EB51EC301B2012CE93FEF5B
:101600004FEF5FEF0E94DD1E69017A01C301B20155
:1016100020E931E040E050E00E94DD1EC20ED31E02
:10162000E41EF51EC80CD91CEA1CFB1CCE018F560B
:10163000924083319940F0F4CE0183709927892B31
:1016400071F5CE0164E670E00E94A71E892B39F483
:10165000CE0160E971E00E94A71E892B01F58DE1A2
:1016600090E0909304018093030181E0C81AD108AF
:10167000E108F108C701B6016B517D4B854E9F4FC4
:10168000DF91CF91FF90EF90DF90CF90BF90AF9020
:101690009F908F907F906F905F904F9008958CE116
:1016A00090E09093040180930301E4CF2F923F9246
:1016B0004F925F926F927F928F929F92AF92BF9262
:1016C000CF92DF92EF92FF920F931F93CF93DF930E
:1016D0004B015C01EA0119016801E114F10409F010
:1016E00043C06253794B8D4191092DE631E040E0D2
:1016F00050E00E94DD1E3983288308811981C801CA
:10170000E114F104B1F50E94F4042B013C012FEF28
:10171000421A520A620A720AC80101960E94F4042F
:10172000AB01BC014F5F5F4F6F4F7F4FCA018055C8
:101730009140841995099093300180932F0184146E
:101740009504A604B7046CF5888199810197998363
:10175000888384169506A606B7067CF2888199814F
:10176000019699838883C9CF645E72448A41910946
:10177000BCCF0E94D50A2B013C01E1E0F1E0BC01A5
:10178000A20181919191092E000CAA0BBB0B480F6D
:10179000591F6A1F7B1F89E191E08E179F0789F708
:1017A000CECF84169506A606B706C4F6E9E1F1E0A9
:1017B000C1E0D1E030E020E0A40144195509E11472
:1017C000F10431F5808191812F5F3F4F4817590710
:1017D00014F5F60151834083F10131832083F60132
:1017E00080819181019691838083DF91CF911F91B8
:1017F0000F91FF90EF90DF90CF90BF90AF909F90B0
:101800008F907F906F905F904F903F902F900895B2
:1018100088819981D9CF092E000CAA0BBB0B480EE9
:10182000591E6A1E7B1E329622962C30310521F6F7
:10183000F60151834083D9CFCF93DF93EC0160E071
:101840008E810E947B0261E08E810E947B0260E0BB
:101850008E810E947B028BE891E00197F1F7DF9186
:10186000CF910895CF92DF92EF92FF920F931F9343
:10187000CF93DF936C017C0187E0E80EF11CD0E090
:10188000C0E0062F10E0B8010C2E02C075956795D8
:101890000A94E2F76170F70181917F010E947B0257
:1018A0002196C430D10579F7C601DF91CF911F9100
:1018B0000F91FF90EF90DF90CF900C941C0CCF9283
:1018C000DF92EF92FF920F931F93CF93DF93EC0180
:1018D000F62E642F8C810E947B028D818F3F19F040
:1018E00060E00E947B020F2D10E08F8584FF25C0F1
:1018F0006E0187E0C80ED11CF12CE12CB8010E2C32
:1019000002C0759567950A94E2F76170F6018191BE
:101910006F010E947B02FFEFEF1AFF0A88E0E816D2
:10192000F10461F7CE01DF91CF911F910F91FF90EC
:10193000EF90DF90CF900C941C0CB80184E075956B
:1019400067958A95E1F7CE010E94320C6F2DCE018A
:10195000DF91CF911F910F91FF90EF90DF90CF908B
:101960000C94320C40E0682F84EB93E00C945F0CF5
:1019700081E00E94B20C8BE39FE10197F1F708959B
:10198000CF93DF93823029F49091C30398609093B2
:10199000C3038093C7031092C80380E48093C903F4
:1019A00080E18093CA0380E58093CB0361E080915E
:1019B000B8030E94AD028091B9038F3F19F061E036
:1019C0000E94AD0261E08091BA030E94AD02C4EBB7
:1019D000D3E09E01245B33408091C30384FD0BC0A0
:1019E00084E090E021962817390744F461E08E8165
:1019F0000E94AD02EECF88E090E0F4CF8BE39DE053
:101A00000197F1F760E08091B8030E947B0260E0EB
:101A10008091BA030E947B028091B9038F3F19F035
:101A200060E00E947B028091C30384FD34C063E0C8
:101A300084EB93E00E94320CCBE4D6E4CE01019714
:101A4000F1F763E084EB93E00E94320C2197F1F709
:101A500063E084EB93E00E94320C83E592E001970F
:101A6000F1F762E084EB93E00E94320C8091C303B3
:101A700080620E94B20C84E08093C4038CE00E94D8
:101A8000B20C0E94B80C82E08093C50386E0DF911F
:101A9000CF910C94B20C80620E94B20C8BE496E45D
:101AA0000197F1F78091C30380620E94B20C83E535
:101AB00092E00197F1F78091C30380620E94B20C1B
:101AC000D5CF9091C703691710F06FEF690FE62F1C
:101AD000F0E0EC54FC4F9489890F80680C94B20CB0
:101AE000E4EBF3E080898E7F808B88600C94B20CED
:101AF00041E00E945F0C81E090E008950F931F93F6
:101B0000CF93DF938C01D0E0C0E0F801EC0FFD1F14
:101B10006491662339F041E084EB93E00E945F0C0E
:101B20002196F3CFCE01DF91CF911F910F910895B0
:101B30008F929F92AF92BF920F931F93CF93DF9399
:101B4000CDB7DEB7A1970FB6F894DEBF0FBECDBFFD
:101B500019A2423008F44AE08E010F5D1F4F842E17
:101B6000912CB12CA12CA50194010E94BB1EE62F43
:101B7000B901CA01EA3044F5E05DD801EE938D0168
:101B8000232B242B252B79F790E080E0109769F028
:101B9000FD0101900020E9F73197AF014A1B5B0B73
:101BA000BD0184EB93E00E941901A1960FB6F89451
:101BB000DEBF0FBECDBFDF91CF911F910F91BF90C0
:101BC000AF909F908F900895E95CD7CF682F70E019
:101BD00090E080E04AE00C94980DCF92DF92EF9273
:101BE000FF926C01990FEE08FF08F7FE16C041E066
:101BF0006DE284EB93E00E945F0C66277727CB01B0
:101C00006C197D098E099F094AE00E94980D019682
:101C1000FF90EF90DF90CF9008954AE0C701B601A2
:101C2000FF90EF90DF90CF900C94980D4F925F92C1
:101C30006F927F929F92AF92BF92CF92DF92EF927C
:101C4000FF920F931F93CF93DF930E94B80C84E809
:101C500090E00E947E0D61E080E00E94610D809125
:101C60000802909109020E94ED0D82E890E00E9426
:101C70007E0D80912002909121020A9724F480E841
:101C800090E00E947E0D80912002909121020E949E
:101C9000ED0D8EE790E00E947E0D809122029091E2
:101CA00023020A9724F48CE790E00E947E0D809135
:101CB0002202909123020E94ED0D8091C403982F7F
:101CC00091609093C40389600E94B20C81E080937C
:101CD0000001E0910802F0910902CF0168EE73E083
:101CE0000E94A71E6093B40124E630E0B9010E946F
:101CF000A71E6093B301CF01B9010E94A71E2AE07D
:101D000030E0B9010E94A71E6093B201CF01B90172
:101D10000E94A71E8093B101809120029091210220
:101D2000B9010E94A71E6093B0018093AF0180911A
:101D3000220290912302B9010E94A71E6093AE0176
:101D40008093AD0180911B02622F0E94871E8093B9
:101D5000AC019093AB01809119020E94871E809381
:101D6000AA019093A901809117020E94871E809377
:101D7000A8014DE0B42E05E054E0F52E63E0E62E18
:101D800012E07CE0A72EE9E0DE2EF8E0CF2EABE0FB
:101D90009A2EBAE07B2ECEE06C2E0E94AC03C82FA8
:101DA000D0912902D111B0C061E080E00E94610DA4
:101DB000C03361F41092B40190E080E00E94ED0D18
:101DC000809129028F5F80932902E7CFC13369F4A4
:101DD00081E08093B40181E090E00E94ED0D80915C
:101DE00029028F5F80932902D8CFC23361F4109308
:101DF000B40182E090E00E94ED0D809129028F5F96
:101E000080932902CACFC33361F4E092B40183E026
:101E100090E00E94ED0D809129028F5F809329024E
:101E2000BCCFC43361F4F092B40184E090E00E942E
:101E3000ED0D809129028F5F80932902AECFC533CB
:101E400061F40093B40185E090E00E94ED0D809173
:101E500029028F5F80932902A0CFC63369F486E000
:101E60008093B40186E090E00E94ED0D80912902FC
:101E70008F5F8093290291CFC73369F487E0809305
:101E8000B40187E090E00E94ED0D809129028F5F00
:101E90008093290282CFC83361F4C092B40188E0F4
:101EA00090E00E94ED0D809129028F5F80932902BE
:101EB00074CFC93361F4D092B40189E090E00E94FC
:101EC000ED0D809129028F5F8093290266CFC13486
:101ED00021F481E08093290260CFC23409F052C11D
:101EE0008FEF80932902DF91CF911F910F91FF9087
:101EF000EF90DF90CF90BF90AF909F907F906F90CA
:101F00005F904F900C94700DD13009F09DC061E04E
:101F100081E00E94610DC03361F41092B30190E042
:101F200080E00E94ED0D809129028F5F809329024D
:101F300034CFC13361F4D093B30181E090E00E94CB
:101F4000ED0D809129028F5F8093290226CFC23345
:101F500061F41093B30182E090E00E94ED0D809156
:101F600029028F5F8093290218CFC33361F4E09276
:101F7000B30183E090E00E94ED0D809129028F5F14
:101F8000809329020ACFC43361F4F092B30184E054
:101F900090E00E94ED0D809129028F5F80932902CD
:101FA000FCCEC53361F40093B30185E090E00E945C
:101FB000ED0D809129028F5F80932902EECEC6330A
:101FC00069F486E08093B30186E090E00E94ED0D15
:101FD000809129028F5F80932902DFCEC73369F495
:101FE00087E08093B30187E090E00E94ED0D80913F
:101FF00029028F5F80932902D0CEC83361F4C0924A
:10200000B30188E090E00E94ED0D809129028F5F7E
:1020100080932902C2CEC93361F4D092B30189E022
:1020200090E00E94ED0D809129028F5F809329023C
:10203000B4CEC13419F410932902AFCEC23409F0E2
:10204000A1C010922902A9CED23009F0A4C061E04B
:1020500082E00E94610DC03361F41092B20190E001
:1020600080E00E94ED0D809129028F5F809329020C
:1020700094CEC13369F481E08093B20181E090E0B5
:102080000E94ED0D809129028F5F8093290285CEF9
:10209000C23361F4D093B20182E090E00E94ED0D72
:1020A000809129028F5F8093290277CEC33361F438
:1020B000E092B20183E090E00E94ED0D8091290250
:1020C0008F5F8093290269CEC43361F4F092B2012C
:1020D00084E090E00E94ED0D809129028F5F809353
:1020E00029025BCEC53361F40093B20185E090E034
:1020F0000E94ED0D809129028F5F809329024DCEC1
:10210000C63369F486E08093B20186E090E00E94D5
:10211000ED0D809129028F5F809329023ECEC73357
:1021200069F487E08093B20187E090E00E94ED0DB2
:10213000809129028F5F809329022FCEC83361F4EA
:10214000C092B20188E090E00E94ED0D80912902DA
:102150008F5F8093290221CEC93361F4D092B201FE
:1021600089E090E00E94ED0D809129028F5F8093BD
:10217000290213CEC13419F4E09229020ECEC234E2
:1021800009F4A7CEC33409F4AECEC43409F005CEA9
:102190006092290202CED33009F09CC061E083E056
:1021A0000E94610DC03361F41092B10190E080E0B3
:1021B0000E94ED0D809129028F5F80932902EDCD61
:1021C000C13369F481E08093B10181E090E00E9425
:1021D000ED0D809129028F5F80932902DECDC233FD
:1021E00061F41093B10182E090E00E94ED0D8091C6
:1021F00029028F5F80932902D0CDC33361F4D0933D
:10220000B10183E090E00E94ED0D809129028F5F83
:1022100080932902C2CDC43361F4F092B10184E00D
:1022200090E00E94ED0D809129028F5F809329023A
:10223000B4CDC53361F40093B10185E090E00E9414
:10224000ED0D809129028F5F80932902A6CDC633C0
:1022500069F486E08093B10186E090E00E94ED0D84
:10226000809129028F5F8093290297CDC73369F44B
:1022700087E08093B10187E090E00E94ED0D8091AE
:1022800029028F5F8093290288CDC83361F4C09200
:10229000B10188E090E00E94ED0D809129028F5FEE
:1022A000809329027ACDC93361F4D092B10189E0DB
:1022B00090E00E94ED0D809129028F5F80932902AA
:1022C0006CCDC13419F4F092290267CDC23409F003
:1022D00059CFB1CED43051F561E085E00E94610D57
:1022E000C03361F41092B00190E080E00E94ED0DE7
:1022F000809129028F5F809329024FCDC13369F409
:1023000081E08093B00181E090E00E94ED0D80912A
:1023100029028F5F8093290240CDC13419F40093C4
:1023200029023BCDC23409F02DCF26CFD53009F09C
:10233000B9C061E086E00E94610DC03361F4109283
:10234000AF0190E080E00E94ED0D809129028F5F47
:102350008093290222CDC13369F481E08093AF01DB
:1023600081E090E00E94ED0D809129028F5F8093C3
:10237000290213CDC23361F41093AF0182E090E0E3
:102380000E94ED0D809129028F5F8093290205CD77
:10239000C33381F48091B0018111FFCCE092AF0191
:1023A00083E090E00E94ED0D809129028F5F809381
:1023B0002902F3CCC43381F48091B0018111EDCCBA
:1023C000F092AF0184E090E00E94ED0D809129022F
:1023D0008F5F80932902E1CCC53381F48091B001F5
:1023E0008111DBCC0093AF0185E090E00E94ED0D00
:1023F000809129028F5F80932902CFCCC63389F464
:102400008091B0018111C9CC86E08093AF0186E054
:1024100090E00E94ED0D809129028F5F8093290248
:10242000BCCCC73389F48091B0018111B6CC87E070
:102430008093AF0187E090E00E94ED0D809129022A
:102440008F5F80932902A9CCC83381F48091B001B9
:102450008111A3CCC092AF0188E090E00E94ED0D05
:10246000809129028F5F8093290297CCC93381F430
:102470008091B001811191CCD092AF0189E090E0C0
:102480000E94ED0D809129028F5F8093290285CCF7
:10249000C13421F486E0809329027FCCC23409F054
:1024A00071CE11CFD63009F047C061E088E00E94BC
:1024B000610DC03361F41092AE0190E080E00E94A3
:1024C000ED0D809129028F5F8093290266CCC13384
:1024D00069F481E08093AE0181E090E00E94ED0D0F
:1024E000809129028F5F8093290257CCC23361F417
:1024F0001093AE0182E090E00E94ED0D80912902E0
:102500008F5F8093290249CCC33361F4E092AE011E
:1025100083E090E00E94ED0D809129028F5F80930F
:1025200029023BCCC13421F487E08093290235CCC9
:10253000C23409F027CEF3CED73009F0C4C061E031
:1025400089E00E94610DC03361F41092AD0190E00A
:1025500080E00E94ED0D809129028F5F8093290217
:102560001CCCC13369F481E08093AD0181E090E03F
:102570000E94ED0D809129028F5F809329020DCC7E
:10258000C23389F48091AE01833008F006CC1093F9
:10259000AD0182E090E00E94ED0D809129028F5FF5
:1025A00080932902FACBC33389F48091AE01833042
:1025B00008F0F3CBE092AD0183E090E00E94ED0DD6
:1025C000809129028F5F80932902E7CBC43389F47D
:1025D0008091AE01833008F0E0CBF092AD0184E051
:1025E00090E00E94ED0D809129028F5F8093290277
:1025F000D4CBC53389F48091AE01833008F0CDCBC4
:102600000093AD0185E090E00E94ED0D80912902DC
:102610008F5F80932902C1CBC63391F48091AE01C4
:10262000833008F0BACB86E08093AD0186E090E07D
:102630000E94ED0D809129028F5F80932902ADCB1E
:10264000C73391F48091AE01833008F0A6CB87E0C8
:102650008093AD0187E090E00E94ED0D809129020A
:102660008F5F8093290299CBC83389F48091AE01A2
:10267000833008F092CBC092AD0188E090E00E94D8
:10268000ED0D809129028F5F8093290286CBC9339B
:1026900089F48091AE01833008F07FCBD092AD01F8
:1026A00089E090E00E94ED0D809129028F5F809378
:1026B000290273CBC13419F4C09229026ECBC23403
:1026C00009F060CDE7CED83009F080C080910001DC
:1026D0008823C9F10E94B80C82E790E00E947E0D29
:1026E00061E080E00E94610DD0911B02DA3020F49D
:1026F00080E790E00E947E0D8D2F0E94E60D8EE611
:1027000090E00E947E0DD0911902DA3020F48CE620
:1027100090E00E947E0D8D2F0E94E60D8AE690E0EB
:102720000E947E0DD0911702DA3020F488E690E006
:102730000E947E0D8D2F0E94E60D61E080E00E94D8
:10274000610D10920001C03361F41092AC0190E071
:1027500080E00E94ED0D809129028F5F8093290215
:102760001CCBC13369F481E08093AC0181E090E03F
:102770000E94ED0D809129028F5F809329020DCB7D
:10278000C23361F41093AC0182E090E00E94ED0D41
:10279000809129028F5F80932902FFCAC13431F4EE
:1027A000809129028F5F80932902F7CAC23409F011
:1027B000E9CC8091290281508093290280912802DE
:1027C000882309F4EACA109228028DCBD93009F087
:1027D000BAC061E081E00E94610DC03361F41092E3
:1027E000AB0190E080E00E94ED0D809129028F5FA7
:1027F00080932902D2CAC13369F481E08093AB018E
:1028000081E090E00E94ED0D809129028F5F80931E
:102810002902C3CAC23361F41093AB0182E090E095
:102820000E94ED0D809129028F5F80932902B5CA25
:10283000C33361F4E092AB0183E090E00E94ED0DC0
:10284000809129028F5F80932902A7CAC43389F43B
:102850008091AC01833008F0A0CAF092AB0184E013
:1028600090E00E94ED0D809129028F5F80932902F4
:1028700094CAC53389F48091AC01823008F08DCAC6
:102880000093AB0185E090E00E94ED0D809129025C
:102890008F5F8093290281CAC63391F48091AC0185
:1028A000823008F07ACA86E08093AB0186E090E03F
:1028B0000E94ED0D809129028F5F809329026DCADD
:1028C000C73391F48091AC01823008F066CA87E08A
:1028D0008093AB0187E090E00E94ED0D809129028A
:1028E0008F5F8093290259CAC83389F48091AC0163
:1028F000823008F052CAC092AB0188E090E00E949A
:10290000ED0D809129028F5F8093290246CAC93359
:1029100089F48091AC01823008F03FCAD092AB01BB
:1029200089E090E00E94ED0D809129028F5F8093F5
:10293000290233CAC13419F4709229022ECAC23452
:1029400009F020CCB9CEDA3009F064C061E083E050
:102950000E94610DC03361F41092AA0190E080E002
:102960000E94ED0D809129028F5F8093290215CA84
:10297000C13369F481E08093AA0181E090E00E9474
:10298000ED0D809129028F5F8093290206CAC23320
:1029900061F41093AA0182E090E00E94ED0D809115
:1029A00029028F5F80932902F8C9C33361F4E09252
:1029B000AA0183E090E00E94ED0D809129028F5FD3
:1029C00080932902EAC9C43361F4F092AA0184E039
:1029D00090E00E94ED0D809129028F5F8093290283
:1029E000DCC9C53361F40093AA0185E090E00E9440
:1029F000ED0D809129028F5F80932902CEC9C134E9
:102A000019F490922902C9C9C23409F0BBCBD09203
:102A10002902C3C9DB3009F09CC061E084E00E9458
:102A2000610DC03361F41092A90190E080E00E9432
:102A3000ED0D809129028F5F80932902AEC9C133C9
:102A400069F481E08093A90181E090E00E94ED0D9E
:102A5000809129028F5F809329029FC9C23361F45C
:102A60001093A90182E090E00E94ED0D809129026F
:102A70008F5F8093290291C9C33361F4E092A90169
:102A800083E090E00E94ED0D809129028F5F80939A
:102A9000290283C9C43361F4F092A90184E090E073
:102AA0000E94ED0D809129028F5F8093290275C9E4
:102AB000C53361F40093A90185E090E00E94ED0D1B
:102AC000809129028F5F8093290267C9C63369F418
:102AD00086E08093A90186E090E00E94ED0D809150
:102AE00029028F5F8093290258C9C73369F487E0B0
:102AF0008093A90187E090E00E94ED0D809129026A
:102B00008F5F8093290249C9C83361F4C092A9013B
:102B100088E090E00E94ED0D809129028F5F809304
:102B200029023BC9C93361F4D092A90189E090E040
:102B30000E94ED0D809129028F5F809329022DC99B
:102B4000C13419F4A092290228C9C23409F01ACB61
:102B5000F3CEDC3009F062C061E086E00E94610DD6
:102B6000C03361F41092A80190E080E00E94ED0D66
:102B7000809129028F5F809329020FC9C13369F4C4
:102B800081E08093A80181E090E00E94ED0D8091AA
:102B900029028F5F8093290200C9C23361F4109328
:102BA000A80182E090E00E94ED0D809129028F5FE4
:102BB00080932902F2C8C33361F4E092A80183E054
:102BC00090E00E94ED0D809129028F5F8093290291
:102BD000E4C8C43361F4F092A80184E090E00E945C
:102BE000ED0D809129028F5F80932902D6C8C533ED
:102BF00061F40093A80185E090E00E94ED0D8091C2
:102C000029028F5F80932902C8C8C13419F4B09299
:102C10002902C3C8C23409F0B5CAF3CEDD3009F0C9
:102C200083C061E087E00E94610DC03351F490E001
:102C300080E00E94ED0D809129028F5F8093290230
:102C4000ACC8C13351F481E090E00E94ED0D809159
:102C500029028F5F80932902A0C8C23351F482E019
:102C600090E00E94ED0D809129028F5F80932902F0
:102C700094C8C33351F483E090E00E94ED0D80913D
:102C800029028F5F8093290288C8C43351F484E0FD
:102C900090E00E94ED0D809129028F5F80932902C0
:102CA0007CC8C53351F485E090E00E94ED0D809121
:102CB00029028F5F8093290270C8C63351F486E0E1
:102CC00090E00E94ED0D809129028F5F8093290290
:102CD00064C8C73351F487E090E00E94ED0D809105
:102CE00029028F5F8093290258C8C83351F488E0C5
:102CF00090E00E94ED0D809129028F5F8093290260
:102D00004CC8C93351F489E090E00E94ED0D8091E8
:102D100029028F5F8093290240C8C13409F438CA60
:102D2000C23409F02FCA0ECFDE3009F036C80E9437
:102D3000700D2091B40188EE93E0289F8001299FB7
:102D4000100D11248091B30124E6829F000D111D06
:102D500011249091B2018AE0989F000D111D112459
:102D60009091B101090F111D1093090200930802FF
:102D70009091B001C091AF01D0E0989FC00DD11DDE
:102D80001124D0932102C09320029091AE01E090D3
:102D9000AD01F12C989FE00CF11C1124F09223025C
:102DA000E09222029091AC019090AB01989F900C20
:102DB000112490921B02B090A9019091AA01AB2C12
:102DC000989FA00C1124A09219029091A801989F9D
:102DD000B00C1124B09217022197CC30D10508F421
:102DE00092C010920F0210920E0210920D021092D9
:102DF0000C0210920B0210920A0210910E02105D4A
:102E000000910C02F0900A028091CC03D1E0D093A3
:102E10002A0280934C0210922B0210924D0290E0F5
:102E200080E00E941A07CAE08B2D6C2F0E94871E3B
:102E30008295807F682F690F89E393E00E94EB06FB
:102E40008A2D6C2F0E94871E8295807F682F690FC4
:102E500089E393E00E94EB06892D6C2F0E94871E68
:102E60008295807F682F690F89E393E00E94EB06CB
:102E700067E089E393E00E94EB068F2D6C2F0E94A0
:102E8000871E8295807F682F690F89E393E00E94F7
:102E9000EB06802F6C2F0E94871E8295807F890F02
:102EA000806890E00E941A07812F6C2F0E94871E75
:102EB0008295807F682F690F89E393E00E94EB067B
:102EC0000E94C7058091CC03D0932A0280934C02C4
:102ED00010922B0210924D028FE090E00E941A0790
:102EE0000E94C705DF91CF911F910F91FF90EF9046
:102EF000DF90CF90BF90AF909F907F906F905F904A
:102F00004F900C943B08670181E0C81AD1089FE1FB
:102F1000C916D10408F065CFC801019784319940E2
:102F200008F05FCFCB30D105C1F4C8010E94F40492
:102F30002B013C01C80101960E94F4046419750933
:102F4000860997096E3671408105910569F58EE114
:102F500090E09093300180932F01FE01EE0FFF1F50
:102F6000E75EFE4F808191818E159F050CF439CF6D
:102F7000C8010E94F4048B019C010F5F1F4F2F4F6B
:102F80003F4FE9E1F1E090E080E08C179D077CF491
:102F900041915191052E000C660B770B040F151F04
:102FA000261F371F0196F1CF8DE190E0D2CF0D2C77
:102FB000000CEE08FF08C701B601600F711F821FE9
:102FC000931FEE24E394F12C0AE012E02CE032E0AF
:102FD0004EE052E00E94560B10CF85ED8093BC006E
:102FE0008091760290917702A0917802B091790257
:102FF0000796A11DB11D23E0B695A79597958795D6
:103000002A95D1F72091BC0024FD03C010927402D0
:103010000895409176025091770260917802709104
:103020007902452B462B472B69F30097A105B10583
:1030300041F02AE22A95F1F700C00197A109B109F0
:10304000E1CF809175020C94A6051F920F920FB6E6
:103050000F9211242F933F934F935F936F937F931E
:103060008F939F93AF93BF93EF93FF938CE992E07D
:103070000E949701FF91EF91BF91AF919F918F9126
:103080007F916F915F914F913F912F910F900FBE64
:103090000F901F9018951F920F920FB60F92112448
:1030A0002F938F939F93EF93FF93E091AC02F09156
:1030B000AD028081E091B202F091B30282FD1BC0AB
:1030C00090818091B5028F5F8F732091B602821735
:1030D00041F0E091B502F0E0E456FD4F958F80930A
:1030E000B502FF91EF919F918F912F910F900FBE9D
:1030F0000F901F9018958081F4CF1F920F920FB6FA
:103100000F9211242F933F938F939F93AF93BF936D
:103110008091FA019091FB01A091FC01B091FD0119
:103120003091F90123E0230F2D3758F50196A11DA9
:10313000B11D2093F9018093FA019093FB01A093B4
:10314000FC01B093FD018091FE019091FF01A091DF
:103150000002B09101020196A11DB11D8093FE01F4
:103160009093FF01A0930002B0930102BF91AF9131
:103170009F918F913F912F910F900FBE0F901F90B5
:10318000189526E8230F0296A11DB11DD2CF1F92DC
:103190000F920FB60F9211242F933F934F935F938B
:1031A0006F937F938F939F93AF93BF93EF93FF930F
:1031B0008091B900887F803609F44AC0F0F58832E2
:1031C00009F4A7C018F5803109F49BC0B8F488232E
:1031D00009F4F9C0883009F494C0FF91EF91BF91D0
:1031E000AF919F918F917F916F915F914F913F919F
:1031F0002F910F900FBE0F901F901895883109F4F2
:1032000088C0803251F78093720214C0803409F470
:103210009DC040F48033B9F38833F9F6809372028D
:1032200085ECB0C0803509F485C0883509F496C0B6
:10323000883499F60E94ED17D0CF883909F48CC0F4
:1032400038F5883729F050F4883611F0803729F6A0
:1032500083E0809374021092F80157C0883809F413
:103260007BC0803919F0803809F0B7CF8091F80120
:10327000803208F071C0E091F80181E08E0F8093F8
:10328000F8018091BB00F0E0E852FE4F80833DC022
:10329000803B39F0E0F4803A09F479C0883A09F0CB
:1032A0009CCF84E0809374021092D7011092D601D3
:1032B000E0910402F091050209958091D6018111F7
:1032C0000FC081E08093D6011092B60109C0803C06
:1032D00009F4A6CF883C09F4A3CF883B09F07DCF41
:1032E000E091D70181E08E0F8093D701F0E0EA549E
:1032F000FE4F80818093BB009091D7018091D601D1
:1033000029C080916F028093BB0085EC8093BC0044
:1033100064CF9091710280917002981758F5E091F6
:10332000710281E08E0F80937102F0E0E25BFD4F4D
:103330008081E9CFE091710281E08E0F809371026C
:103340008091BB00F0E0E25BFD4F808390917102C1
:10335000809170029817C8F285E8D8CFE091710289
:1033600081E08E0F809371028091BB00F0E0E25B00
:10337000FD4F80838091730281115CCF81E0809347
:103380006E0284EA8093BC001092740226CF85EC12
:103390008093BC00109274028091F801803230F466
:1033A000E091F801F0E0E852FE4F10826091F801E0
:1033B00070E0E0910202F091030288ED91E009953E
:1033C0001092F8010ACF1092720234CF10929F022D
:1033D00010929E0288EE93E0A0E0B0E08093A002FD
:1033E0009093A102A093A202B093A30222E731E03E
:1033F00030939D0220939C0225EC30E03093A9028B
:103400002093A80224EC30E03093AB022093AA0270
:1034100020EC30E03093AD022093AC0221EC30E0A0
:103420003093AF022093AE0222EC30E03093B10231
:103430002093B00226EC30E03093B3022093B20226
:103440001092B5021092B6021092B7021092B80212
:1034500010923C0310923B0380933D0390933E03F4
:10346000A0933F03B093400384E891E090933A0324
:103470008093390380E28093E7031092EA0380E5AA
:1034800090E09093E9038093E80388E690E09093BE
:10349000CD038093CC031092CE031092CF031092F1
:1034A000D0031092D1031092D2031092D303109242
:1034B000D4038FE097E29093D6038093D50383E003
:1034C0008093D7031092D8031092D9031092DA0395
:1034D0001092DB031092DC031092DD0390E89093CE
:1034E000DE031092DF031092E0031092E1031092CA
:1034F000E2031092E3039EEF9093E4031092E5033E
:103500001092E6031092B7031092B60320EA31E05E
:103510003093B5032093B40398E09093B8039FEFE2
:103520009093B90397E09093BA0396E09093BB030E
:1035300095E09093BC0394E09093BD038093BE0309
:103540001092BF031092C0031092C1031092C203E5
:103550001092C30381E00E94C00C109247031092A6
:103560004B0310924A0310924C0386E991E090932A
:10357000460380934503E1E6F3E010821482138250
:103580001582369683E0ED39F807B9F786E391E0C6
:103590009093A8038093A70382E391E09093AA03FA
:1035A0008093A90384E08093AB038093AC038AE308
:1035B00091E09093A6038093A5038AE090E0909316
:1035C000AE038093AD0384EF91E09093B0038093BA
:1035D000AF031092B3031092B2031092A1031092A2
:1035E000A2031092A3031092A4031092B1030895B2
:1035F000CF93DF9300D0CDB7DEB7789484B58260E7
:1036000084BD84B5816084BD85B5826085BD85B586
:10361000816085BD80916E00816080936E00109204
:10362000810080918100826080938100809181007F
:103630008160809381008091800081608093800010
:103640008091B10084608093B1008091B00081606E
:103650008093B00080917A00846080937A0080919A
:103660007A00826080937A0080917A0081608093F2
:103670007A0080917A00806880937A001092C1006D
:10368000E091AC02F091AD0282E08083E091A8026B
:10369000F091A9021082E091AA02F091AB028FECA6
:1036A00080831092B402E091B002F091B10286E002
:1036B0008083E091AE02F091AF02808180618083CF
:1036C000E091AE02F091AF02808188608083E0914A
:1036D000AE02F091AF02808180688083E091AE02FB
:1036E000F091AF0280818F7D808310929B021092B7
:1036F0009A0210922B0210924D020E94880587E1D7
:1037000091E0909305028093040288E191E0909308
:103710000302809302020E94880588E690E090935D
:10372000CD038093CC0382E00E94C00C61E081E174
:103730000E94AD0262E082E00E94AD020E94B80CDD
:1037400060E083E00E94610D86EF90E00E947E0DB4
:1037500061E081E00E94610D88EE90E00E947E0DA4
:1037600040E060E08FE30E94220764EF71E080E0B8
:1037700090E00E94120344E160E086E00E9422078C
:1037800064EC79E080E090E00E94120340E061E0A8
:1037900081E10E94220764EF71E080E090E00E94E6
:1037A000120342E050E066E072E090E080E00E94A8
:1037B000CF0A80910602909107028F3F910509F090
:1037C00054C00E94160E1A821982CE0101967C0105
:1037D000D12CC12C02E010E0AA24A3942091E7038D
:1037E00030E0C601B9010E94931E281B390B201737
:1037F000310708F0202FB22E9CE1921710F45CE103
:10380000B52E8091E803A0922A0280934C02109278
:103810002B0210924D028D2D90E00E941A07C601D6
:1038200099270E941A077E2C4701882D87198B152E
:1038300040F4F40161914F0189E393E00E94EB06AB
:10384000F4CF66E070E080E090E00E9412030E94F6
:10385000C7056B2D70E0061B170BC60ED71EE60EB4
:10386000F71E0115110509F0B9CF24E6622E712C5F
:1038700030E9C32EDD24D39440E0442E40E0542EA2
:10388000332433949EE1292E0E94AC03813409F045
:10389000BBC1109229020E94160E0E944403AB0184
:1038A000BC018091240290912502A0912602B09142
:1038B000270288519C4FAF4FBF4F84179507A6072B
:1038C000B70708F095C10E944403609324027093E7
:1038D000250280932602909327020E943B082091A4
:1038E000D30330E02053384F30930F0220930E0261
:1038F0000091D20310E010930D0200930C02E091AE
:10390000D103F0E0F0930B02E0930A028091D00320
:1039100080931B028091CF03809319028091CE0384
:1039200080931702015011090C30110508F475C17C
:1039300010920902109208021092210210922002A5
:1039400010922302109222020E94B80C81E391E0AF
:103950000E947E0D80910802909109020E94ED0D57
:103960008FE291E00E947E0D8091200290912102D1
:103970000A9724F48DE291E00E947E0D809120024E
:10398000909121020E94ED0D8BE291E00E947E0D4C
:1039900080912202909123020A9724F489E291E017
:1039A0000E947E0D80912202909123020E94ED0DD3
:1039B00061E080E00E94610D81E291E00E947E0D55
:1039C00010911B021A3020F48FE191E00E947E0DCD
:1039D000812F0E94E60D8DE191E00E947E0D1091F5
:1039E00019021A3020F48BE191E00E947E0D812FA4
:1039F0000E94E60D89E191E00E947E0D1091170270
:103A00001A3020F487E191E00E947E0D812F0E9400
:103A1000E60DE0902202F090230280912002909126
:103A2000210230E020E0873091051CF006972AEB58
:103A300030E08230910544F00197289EA001299E34
:103A4000500D1124240F351FE20EF31EF0921F02B9
:103A5000E0921E0280911C0290911D028E159F051E
:103A600011F03092310180913101882309F45EC058
:103A700099E09E9D80019F9D100D11246AE172E0E6
:103A8000C80108970E94D10A68E172E0C80107974F
:103A90000E94D10A66E172E0C80106970E94D10A2D
:103AA00065E172E0C80105970E94D10A64E172E005
:103AB000C80104970E94D10A63E172E0C80103972C
:103AC0000E94D10A62E172E0C80102970E94D10A05
:103AD00061E172E0C80101970E94D10A60E172E0E1
:103AE000C8010E94D10A10923101F0921D02E092A9
:103AF0001C0282E00E944F020197C1F480911802DB
:103B00008E3108F4E5C08E51809318028091140222
:103B10008E3108F4E4C08E5180931402809111021A
:103B20008E3108F4E3C08E518093110280911B0204
:103B300090911A0289130CC02091190290911802D9
:103B4000291306C02091170290911602291701F13E
:103B50009091150289130CC02091190290911402C2
:103B6000291306C02091170290911302291781F0A2
:103B70009091120289133CC0909119028091110218
:103B8000981336C09091170280911002981330C09C
:103B900061E081E10E947B020E94B80C60E084E059
:103BA0000E94610D8FE091E00E947E0D61E081E056
:103BB0000E94610D81E091E00E947E0D82E00E94F2
:103BC0004F02019709F099C042E060E081E10E9454
:103BD000220760E477E78BE190E00E94120340E067
:103BE00060E08EE00E94220760E081E10E947B029B
:103BF0004114510409F448CE0E948301882309F43A
:103C000041CE0E9400003ECE823409F046CEF8E05C
:103C1000F0932902309228023ECE7F0181E0E81A1B
:103C2000F1089FE1E916F10408F082CE0130110598
:103C3000B9F4C90183709927892BA1F5C901B30192
:103C40000E94A71E892B31F4C901B6010E94A71E4C
:103C5000892B41F58DE190E090930401809303015D
:103C6000D801AA0FBB1FAF5FBE4F8D919C918E17DD
:103C70009F070CF45DCEC9010E94D50AE1E0F1E096
:103C800030E020E02017310784F481909190092CD6
:103C9000000CAA08BB08680D791D8A1D9B1D2F5FAB
:103CA0003F4FF0CF8CE190E0D7CF0F2C000C000BF2
:103CB000110B6E0D7F1D801F911FF12CE12C02E274
:103CC00012E020E232E048E052E00E94560B3CCE87
:103CD00090911A02915090931A02825E15CF9091A2
:103CE0001502915090931502825E16CF90911202A8
:103CF000915090931202825E17CF41E060E081E123
:103D00000E94220760EE73E984E090E066CF991B81
:103D100079E004C0991F961708F0961B881F7A95C2
:103D2000C9F780950895AA1BBB1B51E107C0AA1FC4
:103D3000BB1FA617B70710F0A61BB70B881F991F4C
:103D40005A95A9F780959095BC01CD01089597FBF0
:103D5000072E16F4009407D077FD09D00E94931E19
:103D600007FC05D03EF4909581959F4F089570957E
:103D700061957F4F0895A1E21A2EAA1BBB1BFD017E
:103D80000DC0AA1FBB1FEE1FFF1FA217B307E4073A
:103D9000F50720F0A21BB30BE40BF50B661F771F92
:103DA000881F991F1A9469F7609570958095909572
:103DB0009B01AC01BD01CF010895052E97FB1EF4B8
:103DC00000940E94F41E57FD07D00E94BB1E07FC02
:103DD00003D04EF40C94F41E5095409530952195E7
:103DE0003F4F4F4F5F4F0895909580957095619527
:103DF0007F4F8F4F9F4F08950E94151FB7FF089563
:103E0000821B930B08950024A7FD00942A17300508
:103E10004005500560057005800590050895EE0F7A
:103E2000FF1F0590F491E02D0994A29FB001B39F6C
:103E3000C001A39F700D811D1124911DB29F700DB3
:103E4000811D1124911D0895F894FFCF011F001CBE
:103E5000001F001E001F001E001F001F001E001F6D
:103E6000001E001F001F001F001F001F001F001F5B
:103E7000001E001E001E001E001E001D00010D0E73
:103E80000F100C0B0A0931323341343536423738C2
:103E900039432A30234406008A01D00212037904F0
:103EA0006306A5064A071809E104B8037B03A203C9
:103EB000620365034C035003540300000000B90182
:103EC0001901460106027701550169010000000051
:103ED000EB06BE061F07AE061001C700AF060000C6
:103EE0000000E902A902780200000000780D190123
:043EF0001F07F304B1
:107E0000112484B714BE81FFF0D085E080938100F7
:107E100082E08093C00088E18093C10086E0809377
:107E2000C20080E18093C4008EE0C9D0259A86E02C
:107E300020E33CEF91E0309385002093840096BBD3
:107E4000B09BFECF1D9AA8958150A9F7CC24DD24C4
:107E500088248394B5E0AB2EA1E19A2EF3E0BF2EE7
:107E6000A2D0813461F49FD0082FAFD0023811F036
:107E7000013811F484E001C083E08DD089C08234E0
:107E800011F484E103C0853419F485E0A6D080C0E4
:107E9000853579F488D0E82EFF2485D0082F10E0AE
:107EA000102F00270E291F29000F111F8ED06801E7
:107EB0006FC0863521F484E090D080E0DECF843638
:107EC00009F040C070D06FD0082F6DD080E0C81688
:107ED00080E7D80618F4F601B7BEE895C0E0D1E017
:107EE00062D089930C17E1F7F0E0CF16F0E7DF06D8
:107EF00018F0F601B7BEE89568D007B600FCFDCFD4
:107F0000A601A0E0B1E02C9130E011968C91119780
:107F100090E0982F8827822B932B1296FA010C0160
:107F200087BEE89511244E5F5F4FF1E0A038BF0790
:107F300051F7F601A7BEE89507B600FCFDCF97BE46
:107F4000E89526C08437B1F42ED02DD0F82E2BD052
:107F50003CD0F601EF2C8F010F5F1F4F84911BD097
:107F6000EA94F801C1F70894C11CD11CFA94CF0C13
:107F7000D11C0EC0853739F428D08EE10CD085E9AC
:107F80000AD08FE07ACF813511F488E018D01DD067
:107F900080E101D065CF982F8091C00085FFFCCF94
:107FA0009093C60008958091C00087FFFCCF809118
:107FB000C00084FD01C0A8958091C6000895E0E648
:107FC000F0E098E1908380830895EDDF803219F02E
:107FD00088E0F5DFFFCF84E1DECF1F93182FE3DFCA
:107FE0001150E9F7F2DF1F91089580E0E8DFEE27F6
:047FF000FF270994CA
:027FFE00040479
:00000001FF
